:020000040800F2
:10000000704C00206D020008EB210008C71A0008A0
:10001000E92100082D0A000815260008000000004C
:10002000000000000000000000000000A101000826
:100030002F0A000800000000E501000899230008CD
:10004000870200088702000887020008870200086C
:100050008702000887020008A10D00088702000837
:10006000870200088702000887020008870200084C
:10007000870200088702000887020008870200083C
:10008000870200088702000887020008870200082C
:10009000870200088702000887020008870200081C
:1000A000870200082524000887020008870200084C
:1000B00087020008870200088702000887020008FC
:1000C00087020008870200088702000887020008EC
:1000D0008702000887020008D1250008870200086F
:1000E00087020008870200088702000800F002F873
:1000F00000F047F80AA090E8000C82448344AAF17B
:100100000107DA4501D100F03CF8AFF2090EBAE878
:100110000F0013F0010F18BFFB1A43F0010318473B
:100120002C6400004C640000103A24BF78C878C1E9
:10013000FAD8520724BF30C830C144BF04680C60ED
:10014000704700000023002400250026103A28BF35
:1001500078C1FBD8520728BF30C148BF0B60704739
:10016000642900F01781782900F05081732900F08C
:100170001084002070471FB500F025FA1FBD10B590
:1001800010BD00F021FC1146FFF7F5FF02F0C8FAA0
:1001900000F03FFC03B4FFF7F2FF03BC02F057FA94
:1001A000224B19680868B0E8F00F80F30988BFF3A4
:1001B0006F8F4FF0000080F311884EF00D0E7047E6
:1001C0000000000006480068006880F3088862B6F6
:1001D00061B6BFF34F8FBFF36F8F00DF00BF00BF6B
:1001E00008ED00E0EFF30980BFF36F8F0F4B1A6843
:1001F00020E9F00F106008B54FF0500080F311882F
:10020000BFF34F8FBFF36F8F05F05CF94FF0000025
:1002100080F31188BDE8084019680868B0E8F00F5D
:1002200080F30988BFF36F8F704700BF3C00002048
:10023000EFF30580704700000B49D1F800C04A6811
:100240005CF8043B1068184442F8040B8C4528BF46
:10025000A1F1DC0C8A4228BFA1F1DC02C1F800C088
:100260004A6020F000407047084600200948804757
:1002700009480047FEE7FEE7FEE7FEE7FEE7FEE788
:10028000FEE7FEE7FEE7FEE704480549054A064BA0
:100290007047000023240008ED000008704600208D
:1002A000704C00207048002070480020704700000B
:1002B0000FB4044910B503AA029800F06FFB10BCFC
:1002C0005DF814FB280000200FB41CB5084B06AAEB
:1002D0007B4469460090059800F031FB04460020FD
:1002E000694600F03FFB20461CBC5DF814FB000093
:1002F0009106000070B5044685690068C10601D505
:10030000302600E02026C00707D070BDD4E90121C7
:1003100030469047206A401C20626D1EF6D570BDA5
:1003200070B5044685690078C00707D170BDD4E96F
:10033000012120209047206A401C20626D1EF6D5C6
:1003400070BD70B50C460546012A05D02878800698
:1003500000D5EA69002302E0012305E05B1C93421B
:1003600002D2E05C0028F9D1A869E618C01AA86199
:10037000286A184428622846FFF7BCFF04E0D5E944
:10038000012114F8010B9047B442F8D32846FFF737
:10039000C7FF70BD2DE9F04106460024106875299D
:1003A000314616A510D0AFF30080002802DA404293
:1003B00013A507E031688A0701D512A502E04907B5
:1003C00004D511A5012401E0AFF3008000210A2229
:1003D00006F1240709E0B0FBF2FCB0FBF2F302FBEC
:1003E0001C00303078541846491C0028F3D12346AD
:1003F0002A463046BDE8F04100F042BA0000000055
:100400002D0000002B0000002000000070B5044605
:100410000D4621461068AFF300802188090502D5FA
:100420000F4A7A4402E00E4A7A440E32002104F167
:10043000240305E000F00F060009965D5E54491C98
:100440000028F7D120780023000704D5702D02D0B2
:1004500009B1022311322046BDE8704000F010BA05
:100460009A6000002DE9F05F894604464FF0000ACB
:10047000DFF824B1FB44C0F820A02046E16888479B
:1004800000287DD0252806D0D4E901219047206A94
:10049000401C2062F1E700255F462046E16888475E
:1004A0002028064607DB312E05D2B81910F8200C9B
:1004B00008B10543F1E7A80701D525F00405C4F804
:1004C0001CA00027C4F818A02A2E09D0304602F03C
:1004D000B2F838B304EB8708303EC8F8186019E06A
:1004E00059F8041B204604EB87029161E1688847B4
:1004F000012F064618D1E069002820DA25F02005F2
:100500001DE0D8F8180000EB800006EB4000303802
:10051000C8F818002046E1688847064602F08BF8C4
:100520000028EED1012F0AD02E2E08D12046E168F6
:1005300088477F1C0646022F45F02005C4DBA069D2
:10054000002803DA404245F00105A061E80701D028
:1005500025F01005A6B1A6F14100192802D82036D1
:1005600045F400654A463146204625604D46FFF772
:10057000F7FD60B1012807D0ED1D25F0070000E070
:1005800007E000F1080978E705F1040975E730464E
:100590007AE7206ABDE8F09F706000000B4910B553
:1005A000A1F17C020A4CC2E93712372106E000EBC8
:1005B000104342F82130074B00FB03400B1EA1F112
:1005C0000101F4DC10BD0120E8E70000A84500208F
:1005D000E119D666CD0D010030B505460B462A4619
:1005E00013F8014B12F8010B08B1A042F8D01CB16E
:1005F000002802D06D1CF1E7284630BD10B5431C21
:1006000002E010F8011B71B18107FAD14FF00132FD
:1006100002C88C1A8C4314EAC211F9D0C01A0A0617
:1006200003D0C01E10BDC01A10BD0A0401D0801E28
:1006300010BD0902FCD0401E10BD40EA010370B598
:100640009B072ED14FF00136042A2AD308C810C9BF
:100650009D1B9D43121F15EAC61517D0D8B2E1B2F3
:10066000401A50EA056110D198B2A1B2401A50EA7E
:1006700005410AD123F07F4024F07F41401A50EA1F
:10068000052102D1180EA0EB146070BDA342DBD08F
:1006900018BA21BA884201D9012070BD4FF0FF304D
:1006A00070BD0AB9002070BD10F8013B11F8014B74
:1006B00063B1A3420AD1521E08D010F8013B11F8D1
:1006C000014B1BB1A34201D1521EEDD1181B70BDCD
:1006D000421E12F8013F002BFBD111F8013B002B09
:1006E00002F8013BF9D17047032A40F2308010F044
:1006F000030C00F0158011F8013BBCF1020F6244BD
:1007000098BF11F801CB00F8013B38BF11F8013B4D
:10071000A2F1040298BF00F801CB38BF00F8013BFA
:1007200011F0030300F02580083AC0F0088051F86A
:10073000043B083A51F804CBA0E80810F5E7121D75
:100740005CBF51F8043B40F8043BAFF30080D20794
:1007500024BF11F8013B11F801CB48BF11F8012B60
:1007600024BF00F8013B00F801CB48BF00F8012B83
:10077000704710B5203AC0F00B80B1E81850203A0D
:10078000A0E81850B1E81850A0E81850BFF4F5AF31
:100790005FEA027C24BFB1E81850A0E8185044BFBB
:1007A00018C918C0BDE810405FEA827C24BF51F828
:1007B000043B40F8043B08BF7047D20728BF31F81C
:1007C000023B48BF11F8012B28BF20F8023B48BF6D
:1007D00000F8012B704702F0FF0343EA032242EACC
:1007E000024200F002B84FF000020429C0F012806B
:1007F00010F0030C00F01B80CCF1040CBCF1020FD4
:1008000018BF00F8012BA8BF20F8022BA1EB0C01A8
:1008100000F00DB85FEAC17C24BF00F8012B00F89E
:10082000012B48BF00F8012B70474FF0000200B5C4
:10083000134694469646203922BFA0E80C50A0E803
:100840000C50B1F12001BFF4F7AF090728BFA0E8B1
:100850000C5048BF0CC05DF804EB890028BF40F87D
:10086000042B08BF704748BF20F8022B11F0804FBF
:1008700018BF00F8012B70477047704770477047EA
:100880002DE9F0470D4699469246044600F12408AA
:100890000168880604D5E06921F01001216000E0BC
:1008A0000120A84201DD471B00E00027A1697A1959
:1008B00002EB0900081AA0612078C00602D4204685
:1008C000FFF718FD002608E0D4E901211AF8060018
:1008D0009047206A401C761C20624E45F4DB20784D
:1008E000C0060AD52046FFF705FD06E0D4E9012140
:1008F00030209047206A401C2062381EA7F1010773
:10090000F4DC07E0D4E9012118F805009047206ADB
:10091000401C2062281EA5F10105F3DC2046FFF7EC
:10092000FFFC2078000602D50220BDE8F0870120F8
:10093000FBE7000001694A1C02610878704700B5B6
:100940008FB0CDE901310021059105497944CDE908
:10095000031011466846FFF785FD0FB000BD00008B
:10096000E5FFFFFF0A6802F8010B0A60704710B547
:10097000436913B1AFF3008001E0FFF7E2FC01200F
:1009800010BD127800F124010A7000224A70012281
:10099000EDE711684FF0FF32E9E70000074B70B553
:1009A0000D467B44FFF7CBFF0446284600F008F8CD
:1009B00010B14FF0FF3070BD204670BD631D0000C8
:1009C000007B00F080007047754600F02BF8AE46C3
:1009D00005006946534620F00700854618B020B54B
:1009E000FFF752FCBDE820404FF000064FF0000733
:1009F0004FF000084FF0000B21F00701AC46ACE8C7
:100A0000C009ACE8C009ACE8C009ACE8C0098D4633
:100A1000704710B50446AFF300802046BDE8104093
:100A2000FFF7B8BB0048704710460020FEE770474C
:100A30002DE9F047414C8046014660783E4E67689C
:100A4000C82804D2A6F5A8721154401C60706069D1
:100A5000002550B105F0ACF96169401AB0F57A7F14
:100A600003D96560A5702F46656106F80780606848
:100A70004146401C6060A2785AB1012A1BD0022A6C
:100A80000BD1A168884208D1B14600202C4FE36801
:100A90003AE030782B2802D06560BDE8F087042F5B
:100AA000FBD1052227A13046FFF7C7FD0028F3D16F
:100AB0000120A070F0E73A2903D0092FEDDBA570E3
:100AC000EAE700206FF02F02A16806E0335C01EB3B
:100AD000810102EB41011944401CB842F6DB0220BF
:100AE000A160A070656005F063F96061D5E72269D7
:100AF0009446521CC2F308029A4207D019F80080AB
:100B000007F80C80401C22618842F0DB02290FD0DC
:100B10000EA0FFF7CDFB002704E0F15D0FA0FFF76B
:100B2000C7FB7F1CA0688742F7DB0EA0FFF7C0FB66
:100B3000A5706560A560B0E7100200200C000020E1
:100B4000100400202B4950442C000000495352202F
:100B500047657420446174613A2000002530327882
:100B6000200000000D0A0000F0B5094A05460020EB
:100B7000084E146909E0D368A34208D0F75C5B1CF7
:100B80002F54C3F30803401CD3608842F3DBF0BD4D
:100B90000C0000201004002030B5C1B04FF4807567
:100BA0004FF4FA7429466846FFF73FFE16A16846DF
:100BB000FFF78EFD01F000FD6846FFF71FFD81B2D3
:100BC0002246684601F01EFD29466846FFF72DFEC5
:100BD000684601F00BFD78B10EA16846FFF7FCFCFA
:100BE00028B1684601F002FB002041B030BD641E10
:100BF000A4B2012000F0ECF8002CE9D106A0FFF728
:100C000057FB0120F1E7000041542B434946535262
:100C10000D0A00004F4B00004765742049502046E4
:100C200061696C656421200D0A000000F0B5C1B057
:100C30000F4606464FF48075144629466846FFF76E
:100C4000F4FD31466846FFF743FD1BA16846FFF7F8
:100C5000C3FC18B918A16846FFF73AFD01F0ACFCD7
:100C60006846FFF7CBFC81B24FF4FA72684601F098
:100C7000C9FC29466846FFF7D8FD14E0684601F034
:100C8000B5FC58B139466846FFF7A6FC30B131468D
:100C90000AA0FFF70DFB002041B0F0BD641EA4B216
:100CA000012000F095F8002CE8D1314607A0FFF7AD
:100CB000FFFA0120F0E700000D0A00002573205321
:100CC000656E64206F6B210D0A00000025732053B0
:100CD000656E64206572726F72210D0A000000005B
:100CE0002DE9F041C0B00D4607464FF480761C4612
:100CF000904631466846FFF798FD01F05DFCA9B2C9
:100D00004FF4FA72384601F07DFC31466846FFF731
:100D10008CFD11E0684601F069FC68B14146684607
:100D2000FFF75AFC18B1002040B0BDE8F081641E06
:100D3000A4B2012000F04CF8002CEBD10120F3E725
:100D400030B5C1B00C4605464FF480716846FFF7D8
:100D50006CFD22460BA16846FFF7B6FA4FF4FA7213
:100D60000CA16846FFF762FF10B1002041B030BD12
:100D70004FF47A7308A221462846FFF7B1FF2046B8
:100D8000F4E7000041542B43495053454E443D2560
:100D9000640D0A004F4B000053454E44204F4B005A
:100DA000012000F02FB8000010B5012200212620FC
:100DB00000F0BEF9262000F0ADF903480068C168D4
:100DC00041F02001C16010BDCC01002072B6FEE7E9
:100DD00070B5044600F020F90546601C02D00448B6
:100DE0000078044400F018F9401BA042FAD370BD0B
:100DF0002C000020012801D1014908707047000033
:100E000004000020044910B50A68024202D00860BC
:100E1000FFF7F0FF10BD0000140401402DE9F84F6A
:100E2000DFF8B891002409F1040A0AF1040B234603
:100E30000F270BF1040EC9E00125A5402A40AA4264
:100E40007DD1674ED1F804C0ACEB0608B44532D072
:100E500014DCBCF1030F3AD009DCBCF1000F2AD03E
:100E6000BCF1010F1CD0BCF1020F31D11DE0BCF16F
:100E7000110F17D0BCF1120F2AD119E0B8F5881F55
:100E800019D006DCB8F5803F15D0B8F5801F1FD10A
:100E900011E0B8F5001F0ED0B8F5041F18D10AE014
:100EA000CB6815E0CB681B1D12E0CB6808330FE060
:100EB000CB680C330CE08B682BB1012B4FF008038F
:100EC00003D0456104E0042302E0056100E0002353
:100ED000FF2A01D8064601E000F104064FEA840526
:100EE00001D9A5F12005D6F8008007FA05FC28EA0B
:100EF0000C0803FA05F548EA0508C6F800804D68B5
:100F0000ED0062D5374DAE6946F00106AE61AD69C0
:100F100024F0030605F001050095334D06EB050CA2
:100F2000DCF80850A607360F07FA06F825EA080588
:100F3000DFF8B880404503D14FF0000817E044E0E7
:100F4000DFF8AC80404502D14FF001080FE0DFF838
:100F5000A480404502D14FF0020808E0DFF89880F5
:100F6000404502D14FF0030801E04FF0040808FAB1
:100F700006F848EA0508CCF808804D68D9F8006002
:100F8000ED034D4601D5164300E096432E604D68B3
:100F9000DAF80060AD03554601D5164300E09643EC
:100FA0002E604D68DBF80060ED025D4601D516430A
:100FB00000E096432E604D68DEF80060AD02754695
:100FC00001D5164300E096432E60641C0D682A4646
:100FD000E5407FF431AFBDE8F88F00000004014028
:100FE0000000111000100240000001400008014004
:100FF000000C01400010014000140140C26821EAC9
:1010000002030A4043EA0241016170470AB10161EB
:1010100070470904FBE70000014880687047000042
:101020002C000020024881680278114481607047DA
:101030002C000020074810B5016841F01001016044
:10104000032000F095F80F2000F006F800F03EF8BD
:10105000002010BD0020024000B5014687B00022EC
:10106000192000F065F8192000F054F81348816940
:1010700041F400618161806905A900F40060069077
:10108000684600F01DF900F04BF90D490D4AB0FB20
:10109000F1F10D48491E0260416040F2E732002143
:1010A000C0E90321816000F013FB10B1012007B0FB
:1010B00000BD054800F03AFBF9E7000000100240CF
:1010C00040420F00002C0140100600200F4808B5D8
:1010D000816941F001018161816901F001010091A3
:1010E000C16941F08051C161C069002200F08050A7
:1010F00000900F21901E00F01BF80548416821F078
:10110000E06141F00071416008BD00000010024044
:1011100000000140002809DB00F01F02012191407E
:101120004009800000F1E020C0F800117047000085
:10113000F0B40E4B1B680C46C3F30223C3F1070542
:10114000042D00D90425191D072901D2002300E030
:10115000DB1E012606FA05F1491E214099409E40FA
:10116000761E16403143F0BC01F055BA0CED00E09C
:10117000064900F0070208684FF6FF03184040EAEE
:101180000220034A10430860704700000CED00E0A5
:101190000000FA052DE9F0470F46050061D0434EE7
:1011A000306800F00700B84209D2306820F007002C
:1011B00038433060306800F00700B84251D12868E9
:1011C0003B4C810712D5400703D5606840F4E060CE
:1011D00060602878000703D5606840F46050606064
:1011E0006068A96820F0F000084360602878C007B4
:1011F00028D06868012810D02168022810D08907FB
:1012000000292EDA616821F0030101436160FFF7D4
:1012100003FF804641F288390DE021688903EFE73A
:101220008901EDE7FFF7F8FEA0EB0801494502D977
:101230000320BDE8F0876068696800F00C00B0EB3F
:10124000810FEFD1306800F00700B8420BD9306849
:1012500020F0070038433060306800F00700B842E3
:1012600001D00120E5E72878400705D56068E968E6
:1012700020F4E060084360602878000706D56068C5
:10128000296920F4605040EAC100606000F058F81D
:101290006168084AC1F30311515CC84006490860FF
:1012A00006480068FFF7D8FE0020C2E70020024091
:1012B00000100240C4610008380000203000002007
:1012C0000F2202600C4A536803F003034360536823
:1012D00003F0F0038360536803F4E063C360526873
:1012E0004FF4E06303EAD20202610448006800F0B0
:1012F0000700086070470000001002400020024014
:101300000448054900684968044AC1F30221515C58
:10131000C84070473800002000100240D461000827
:101320000448054900684968044AC1F3C221515C78
:10133000C84070473800002000100240D461000807
:1013400012A185B00FC98DE80F0014A0144A0068DF
:1013500004905168134801F00C03042B10D0082BA3
:101360000ED1C1F38343C9031DF803000AD55168A8
:1013700004AAC1F34041515C0A4A5043B0FBF1F06A
:1013800005B0704708494843FAE700000203040526
:10139000060708090A0B0C0D0E0F101001020000C1
:1013A0000010024000127A0000093D002DE9F84FBC
:1013B000040070D02078C04DC00749D06868C0F3E1
:1013C0008100012807D06868C0F38100022809D194
:1013D0006868C00306D52868800339D5606800288E
:1013E000E7D035E06068B0F5803F0BD010B1B0F5C4
:1013F000A02F11D0286820F480302860286820F4BD
:10140000802002E0286840F480302860606890B155
:10141000FFF702FE06460AE0286840F480202860B4
:10142000F0E700BFFFF7F8FD801B642873D8286839
:101430008003F7D50CE0FFF7EFFD064605E000BF9F
:10144000FFF7EAFD801B6428F0D828688003F7D4F2
:1014500020789A4E80074FF001094FF0000839D5E7
:10146000686810F00C0F07D06868C0F3810002288C
:1014700009D16868C00306D42868800714D520699C
:10148000012808D110E02069B0B1C6F80090FFF73C
:10149000C3FD074605E00AE1FFF7BEFDC01B0228B9
:1014A000C4D828688007F7D52868616920F0F8005B
:1014B00040EAC10028600DE0C6F80080FFF7ACFDEF
:1014C000074604E0FFF7A8FDC01B022823D82868C0
:1014D0008007F7D4207800072CD57948A169D9B1C5
:1014E000C0F80090FFF798FD074604E0FFF794FD71
:1014F000C01B02280FD8686A8007F7D571484FF4DF
:10150000FA510068B0FBF1F0009000BF0098411E56
:101510000091FAD20EE080E0C0F80080FFF77CFD79
:10152000074604E0FFF778FDC01B022875D8686AFB
:101530008007F7D42078400760D5E8690027C0000D
:1015400008D4E86940F08050E861E869012700F0BC
:10155000805000905C480168C90513D40168834637
:1015600041F480710160FFF757FD824606E000BF3D
:10157000FFF752FDA0EB0A0064284ED8DBF800000C
:10158000C005F5D5E06801280AD008B1052813D0B8
:10159000286A20F001002862286A20F0040002E096
:1015A000286A40F001002862E06841F2883B98B167
:1015B000FFF732FD82460BE0286A40F00400286203
:1015C000EEE700BFFFF728FDA0EB0A0159455AD806
:1015D000286A8007F6D50CE0FFF71EFD824605E07D
:1015E000FFF71AFDA0EB0A0159454CD8286A80077D
:1015F000F6D41FB1E86920F08050E861E06988B353
:101600006968C1F38101022944D00228C6F86080CC
:1016100004D0FFF701FD044638E034E0FFF7FCFC9E
:10162000074604E0FFF7F8FCC01B02282BD8286807
:101630008001F7D4206AB0F5803F05D16868A168C1
:1016400020F4003008436860D4E908010843696861
:1016500021F4741108436860C6F86090FFF7DCFC61
:10166000044606E025E000BFFFF7D6FC001B022879
:1016700009D828688001F7D51BE000BFFFF7CCFC34
:10168000001B022802D90320BDE8F88F28688001DA
:10169000F4D40EE00128F7D06868226A00F48031A3
:1016A000914204D1616A00F47010884201D0012097
:1016B000EAE70020E8E70000001002400000424294
:1016C000800442423800002000700040704770479C
:1016D00010B5040003D094F83D0010B107E00120DC
:1016E00010BD002084F83C00204600F01EF80220C7
:1016F00084F83D00211D206800F09AFE012084F846
:10170000460084F83E0084F83F0084F8400084F8E6
:10171000410084F8420084F8430084F8440084F8CF
:10172000450084F83D00002010BD704790F83D1042
:10173000012901D001207047022180F83D10016885
:10174000CA6842F00102CA6000680B49884208D0AA
:10175000B0F1804F05D00949884202D0084988423B
:1017600004D1816801F00701062903D0016841F026
:101770000101016000207047002C0140000400407E
:1017800000080040704770B50446006801694FF0DA
:101790000005C943890715D4C168C943890711D415
:1017A000E91E0161012020772068806980072046BA
:1017B00002D0FFF7E7FF04E000F098F8204600F0C1
:1017C00096F8257720680169C943490717D4C1688D
:1017D000C943490713D46FF0040101610220207747
:1017E0002068806910F4407F204602D0FFF7CAFFCE
:1017F00004E000F07BF8204600F079F825772068B7
:101800000169C943090716D4C168C943090712D43D
:101810006FF008010161042020772068C06980070B
:10182000204602D0FFF7AEFF04E000F05FF820464C
:1018300000F05DF8257720680169C943C90617D40F
:10184000C168C943C90613D46FF0100101610820B3
:1018500020772068C06910F4407F204602D0FFF74F
:1018600091FF04E000F042F8204600F040F82577B0
:1018700020680169C943C90708D1C168C943C907BC
:1018800004D1891E0161204600F032F82068016908
:10189000C943090609D4C168C943090605D46FF0D4
:1018A000800101612046FFF711FF20680169C943EB
:1018B000490609D4C168C943490605D46FF04001FF
:1018C0000161204600F01EF820680169C9438906BD
:1018D0000BD4C168C943890607D46FF020010161A8
:1018E0002046BDE87040FFF7F2BE70BD70477047FC
:1018F00000680349884201D1FFF794BB704700009C
:10190000002C0140704770B5040004D094F83D00ED
:10191000002510B106E0012070BD84F83C5020463F
:1019200000F022F8242084F83D002068C16821F4EA
:101930000051C160204600F0B1FD2068016921F42A
:10194000904101612068416921F02A0141612068CC
:10195000C16841F40051C1602564202084F83D0035
:1019600084F83E00002070BD70B586B0002400945D
:10197000019402940394234E036823490220032216
:10198000224DB34219D18B6943F480438B618B693B
:1019900003F4804304938B6943F004038B618969EA
:1019A000039201F0040104910102CDE9001069469F
:1019B0002846FFF733FA28151BE0154EB3421FD116
:1019C000CB6943F40033CB61CB6903F40033049358
:1019D0008B6943F004038B618969039201F0040170
:1019E00004910421CDE9001069462846FFF716FA54
:1019F0000820CDE90004694628460294FFF70EFA54
:101A000006B070BD003801400010024000080140DF
:101A1000004400402DE9F843044690F83D001F467D
:101A200016460D4620284CD1C5B1BEB194F83C00F5
:101A3000012846D0012084F83C004FF00008C4F88B
:101A40004080212084F83D00FFF7E6FAA684814615
:101A5000E684A068B0F5805F03D004E00120BDE813
:101A6000F883206928B12E465FF0000584F83C8099
:101A70000EE00026FAE78021204600F06BFDA0B9B9
:101A8000AEB116F8010B21684860E08C401EE0847E
:101A9000E08C4B464FF0000200970028EBD14FF04E
:101AA0004001204600F056FD30B10320D7E735F85D
:101AB000020BC0F30800E6E7202084F83D00002078
:101AC000CDE70220CBE7FEE72DE9FC4107461546AE
:101AD0000E4600246846009303F04CF960F30704B7
:101AE000C4F3C00030702009387001A9009800F0DC
:101AF000EFF80099019A014400910A44511A022911
:101B000004DB684603F03CF928800120BDE8FC8135
:101B10002DE9FC41074600240E4625466846009202
:101B200003F028F90146204661F307000009022866
:101B300019D101A9009800F0CBF800990546084496
:101B4000019900900144081A02280CDB684603F052
:101B500011F960F3070404F001003870684603F0DF
:101B600009F9307001252846BDE8FC812DE9FC5FAC
:101B70008046DDE90EA00024CDE900049946174611
:101B80000E462546DDF834B0684603F0F3F860F3FE
:101B90000704200903282CD1C4F3C00188F80010E1
:101BA000C4F34100306004F00100387001A90098CE
:101BB00000F08EF8009905460844019900904418F9
:101BC000224669460C9803F0E4F890B10098201A78
:101BD0000FD43068002804DD684603F0D1F8A9F876
:101BE00000000098211ACAF8001000990125CBF8CE
:101BF00000102846BDE8FC9F2DE9FC4781460A9865
:101C0000002400909A46164688462546684603F00A
:101C1000B1F80146204661F307000009092826D1E2
:101C200001A9009800F054F800990546084401996C
:101C300000904718381A022819DB684603F0A0F80C
:101C4000A9F8000034600EE03168414502DD4FF034
:101C5000FF350CE0684603F08DF831688B00491CB5
:101C600031604AF803000098B842EDD301252846B8
:101C7000BDE8FC870EB500238DF804308DF80830E0
:101C800000920B46024602A901A8FFF71DFF9DF82E
:101C900004100B2900D101200EBDF8B50125002448
:101CA0000E4607460C60641C042C0FDC01216846BC
:101CB000B84701280AD19DF80000316800F07F0282
:101CC00002FB0511ED0131600006ECD42046F8BDA1
:101CD000024A10600248FFF7E0BF0000BC0000208D
:101CE0005126000810B503460020CA1701EB5264C4
:101CF00024F07F02891ACAB2E111002902DD00BF77
:101D000042F080021A5400F10100EEDC10BD70B503
:101D100004680E4624B12046FEF770FC054601E03B
:101D2000D0E901543046FEF769FC854205D12A46C8
:101D300031462046FEF781FC08B1002070BD01202D
:101D400070BD0000401C802801DA401C7047B0F5CF
:101D5000804F01DA801C70470349884201DAC01CB9
:101D60007047001D70470000FFFF1F00F8B50024FA
:101D7000069E05460090042901DAA01EF8BD62F314
:101D8000071463F3C304062A24F0060000D1801C64
:101D9000C1B2684603F0DCFB02210098FFF7A2FF06
:101DA0000099084400903146684603F0D7FB00983C
:101DB000401BF8BD2DE9F8430746009088461446BD
:101DC0000025104600F082F88146FFF7BBFF404532
:101DD00002DDA81EBDE8F8832E46314666F30701F2
:101DE0006846103103F0B4FB49460098FFF77AFFCC
:101DF000009908440090207A04281DD02FA168463D
:101E000003F092FB0321684603F0A2FBA07E66F379
:101E1000070560F34105E07E08B145F00405680759
:101E200007D594F83D0060F3C40594F83C0060F3D6
:101E30004515206C40B905E022A1684603F074FB0B
:101E40000421E0E7A06C08B145F08005E06C08B91A
:101E5000606D08B145F040052946684603F078FBFF
:101E6000218B684603F07AFB04F10C0168460EC929
:101E700003F083FBE07E68B12434684694E80E00EA
:101E8000243C03F07AFB3034684694E80E00303C82
:101E900003F073FB280605D504F1400168460EC91E
:101EA00003F06BFB680605D54C34684694E80E00D9
:101EB00003F063FB0098C01B8CE700004D51497391
:101EC000647000004D5154540000000070B5044689
:101ED000007A0025032802D0042802D002E00C2555
:101EE00000E00A2504F10C0007C800F0F5F80544ED
:101EF000E07EAD1C78B1243494E80700243C00F067
:101F0000EBF83034064694E80700303C00F0E4F883
:101F1000304405442D1D206C08B9A16C29B1D4E9C9
:101F2000111200F0D9F80544AD1CE06C08B9616DE0
:101F300029B1D4E9141200F0CFF80544AD1C2846AD
:101F400070BD0C2200F0AFB82DE9FC5F1C46129E5C
:101F5000CDE90060DDF838B09046DDF830A0DDE96D
:101F60000F23894607465946204600F030F80546BB
:101F7000FFF7E8FE484503DD6FF00100BDE8FC9F78
:101F8000302168F3C30164F342016AF3000101A840
:101F900003F0DEFA29460198FFF7A4FE01990844F0
:101FA0000190DDE90F23594601A803F0E6FA002C61
:101FB00003DD01A80D9903F0D1FA32461199019879
:101FC000FEF792FB019830440190C01BD6E770B534
:101FD0000E46114604461A463046049D00F07CF831
:101FE0002844801C002C00DD801C70BD2DE9FF4FB3
:101FF00083B0064610A8894690E8800900249246DE
:10200000254641463846009600F036F80190FFF725
:1020100099FE484503DDA01E07B0BDE8F08F64F3CC
:10202000070480346AF3C30424F00600801CC1B2A4
:10203000684603F08DFADDE90001FFF753FE0099D1
:10204000084400906846069903F088FA0FE000BF44
:1020500005EB450108EB810090E80E00684603F0AF
:102060008CFA1BF82510684603F072FA6D1CBD420D
:10207000EEDB0098801BCFE72DE9F04102250F46EB
:10208000064600240AE000BF04EB440007EB800092
:1020900007C800F021F80544641CED1CB442F3DBD2
:1020A0002846BDE8F08138B5002304460090022997
:1020B00001DA981E38BD194663F3070162F3071170
:1020C000684603F045FA00210098FFF70BFE0099DF
:1020D00008440090001B38BD10B510B1FEF78EFA11
:1020E0000146084610BD000010B5044A002104480E
:1020F00001F0BEFF0349086010BD0000A0610008A8
:10210000612200080800002070B586B0002417483E
:102110000094019402940394816941F0200181614B
:10212000816901F020010491816941F0040181611C
:1021300080690F4E00F00400049000220221304616
:10214000FEF764FF01250B480095CDE901046946BF
:102150003046FEF763FE0221CDE90015CDE90241CC
:1021600069463046FEF75AFE06B070BD00100240C8
:1021700000080140000021100C4810B50A49016018
:102180004FF4E1314160002181600C22C160C0E95F
:1021900004128161C161FFF7B6FB002803D0BDE8DE
:1021A0001040FEF713BE10BD00380140880100202A
:1021B0000C4810B50A4901604FF4E131416000213B
:1021C00081600C22C160C0E904128161C161FFF726
:1021D0009AFB002803D0BDE81040FEF7F7BD10BD04
:1021E00000440040CC010020FEE7FEE730B5ADF52D
:1021F000017D05464FF4807421466846FEF715FBC5
:10220000214640A8FEF711FB00240EA12846FEF748
:10221000E3F9801D0546FEF7F1F9024629466846B6
:10222000FEF762FA694640AA02E01055641CE4B267
:10223000085D0D28F9D1114604A0FEF739F80DF517
:10224000017D30BD53544149500000004553503882
:102250003236362049503A2025730D0A000000001E
:1022600090B000252822324904A8FEF782FA002601
:10227000009601960296039600F0F4FE2D4C2EA1D6
:10228000206001F03DFB2EA1206801F0C5FA0A2074
:1022900002F014FD0146206801F076FA0A2002F0EF
:1022A0000DFD0146206801F065FB0A2002F006FDE5
:1022B0000146206801F0EAFA0121206801F026FABF
:1022C000206800F0B5FB0100FAD121A0FDF7F0FF76
:1022D00004AF03978DF8006004A8FEF78FF9029011
:1022E0006A4621A1206800F0C7FF214B00221EA1F1
:1022F000206801F0D9FB01461EA0FDF7D9FF42F28C
:1023000010782A466D1C21A104A8FDF7DDFF039774
:102310008DF8006004A8FEF771F902906A4612A1D8
:10232000206800F0A9FF404601F04CFEE9E70000FC
:1023300078610008000000203138383300000000C8
:1023400034372E3131342E3138372E3234370000C5
:102350006D7174745F636F6E6E6563742065727205
:10236000203D2025640D0A00686F6D6500000000A7
:10237000C94D000873756273637269626520657286
:1023800072203D2025640D0A00000000546573741E
:102390004D7367256400000010B5502080F311884C
:1023A000BFF34F8FBFF36F8F03F008FD18B10449DF
:1023B0004FF080500860002080F3118810BD0000AD
:1023C00004ED00E030B58FB028216846FEF72DFA05
:1023D00014210AA8FEF729FA01210804CDE900100A
:1023E0000024029402250491CDE907504FF4E01037
:1023F00009906846FEF7DAFF08B172B6FEE70F20D3
:10240000CDE90A054FF48060CDE90C4002210AA80D
:102410000E94FEF7BFFE002801D072B6FEE70FB0A3
:1024200030BD70470148FFF7AEB90000100600202C
:10243000F0B50268164B174C174D4FF08047984285
:1024400005D0B84203D0A04201D0A84203D122F067
:1024500070064A683243984205D0B84203D0A04281
:1024600001D0A84203D122F44074CA6822434C69C7
:1024700022F08002224302608A68C2620A68826295
:10248000984201D10969016301214161F0BD000059
:10249000002C0140000400400008004070B50446D4
:1024A00000680169E26821F440511143016121692A
:1024B000A0680843616908432168CA6841F20C6357
:1024C0009A430243CA6020684169A26921F44071BD
:1024D000114341611E492068884202D1FEF720FF66
:1024E00001E0FEF70DFF00EBC00101EB0012606898
:1024F00064218000B2FBF0F3B3FBF1F36FF0180638
:102500007343B2FBF0F5B2FBF0F605EB8305322323
:1025100003EB0515B5FBF1F5B6FBF1F605F0F0059B
:1025200005EB0615B2FBF0F6B2FBF0F0B0FBF1F0F4
:102530006FF01802504306EB800003EB0010B0FB75
:10254000F1F0216800F00F002844886070BD0000A1
:10255000003801402DE9F041984617460E460446E2
:10256000069D1DE0681C1BD02DB1FEF755FDA0EBAC
:102570000800A84214D92068C16821F4D071C16054
:102580002068416921F001014161202084F83D006B
:1025900084F83E00002084F83C000320BDE8F08170
:1025A0002068006836EA000004D00020B842D9D084
:1025B0000020F3E70120F9E7034900204870C82113
:1025C0000248FEF732B900000C000020C0000020D5
:1025D00005480068800605D50348001D0068C0B2A4
:1025E000FEF726BA704700000044004010B5034CC7
:1025F00003496278FEF778F8607810BD0C0000207F
:10260000C000002013460A4601460148FFF702BAFF
:10261000CC010020FEE70907090E002804DB00F1C9
:10262000E02080F80014704700F00F0000F1E02077
:1026300080F8141D704730380A2801D201207047F5
:10264000002070475060C0E9002108607047704763
:1026500030B5044606480023026803E012F8015B27
:1026600025705B1C8B42F9DB0260084630BD000020
:10267000BC0000200EB5086C074BC26800780091C2
:10268000CDE901020F2205A10EA0FDF711FEBDE864
:102690000E4018A0FDF70CBEDC6100082E2E5C6D0C
:1026A000717474636C69656E745C6D717474636C61
:1026B00069656E745C6D717474636C69656E742E9B
:1026C0006300000025733A256420257328292E2EE7
:1026D0002E0A746F7069633A2025732C20716F7312
:1026E0003A2025642C200A6D6573736167653A256D
:1026F000730000000D0A000010B5FDF74FFFBDE8A4
:102700001040FDF799BD000013B50A230122694668
:102710000248FFF77FF900981CBD000088010020E7
:10272000FEF788FCFFF74EFEFFF7EEFCFFF724FDF7
:10273000FFF73EFD002205210620FEF7F9FC0620EA
:10274000FEF7E8FC002205212620FEF7F1FC2620FA
:10275000FEF7E0FCFEF728FB01F04EFCFFF7C4FC9F
:1027600001F066FCFEE710B5040006D000F090FC16
:102770002046BDE8104001F0EFBC10BDFEB5054697
:102780000C4602A801F014FE02A8E96A01F008FE56
:1027900004F10800E96A01F003FE05F15000064665
:1027A00001F0E4FC228BE169286AFDF79DFF218B93
:1027B00002AA284600F078FF218AE068CDE90001EE
:1027C000074B40F26512074907A0FDF771FD054868
:1027D0005C30FDF76DFD304601F0CDFCFEBD000024
:1027E000F0610008943B000825733A2564202573A6
:1027F00028292E2E2E20726573656E642025642094
:102800007061636B6167652C207061636B65745FD9
:102810006964206973202564200000002DE9F84FC9
:1028200004466030DDF828A0994615460E464FF064
:10283000000B0746009000F039FC78B9206E0AE0E2
:10284000038AAB4206D1C268B24203D16FF01600D0
:10285000BDE8F88F0846B8420168F1D1B0464E464F
:102860002F46D14606F1200001F056FC050029D084
:1028700000F019FC05F10800824601F099FD504670
:10288000E16A01F08DFDC5F80C802F822E8305F1E1
:102890002000C5F81490E8613246216AFDF724FF54
:1028A00004F15400064601F061FCA06A00F5807056
:1028B000A062304601F05FFC2846009900F0E3FB7F
:1028C0005846C5E76FF00200C2E72DE9F041054622
:1028D00060308846064600F0E9FB00281DD195F8D7
:1028E0004C00012819D1286E14E00746083001F089
:1028F00062FD10B9B8F1010F0BD0F86804280ED0B2
:1029000005280CD006280AD0072808D03846FFF73B
:102910002AFF2046B0420468E7D1BDE8F08139467D
:102920002846FFF72BFFF4E72DE9F0470546603016
:102930009A4690468946074600F0B8FB10BB286EC1
:1029400005F1540604681BE0028A424516D1C268AC
:102950004A4513D1BAF1000F02D04269CAF80020EB
:10296000FFF701FF304601F001FCA86A010A02D01E
:10297000A0F58070A862304601F0FDFB2046246877
:10298000B842E1D10020BDE8F08700002DE9F04118
:1029900005466030064600F089FB50B9286E02E01B
:1029A00001F0DAFB2046B0420468F9D1304600F06D
:1029B00073FB05F15800064600F078FBC0B9A86D1E
:1029C0000027046804E0C76001F0C6FB20462468C5
:1029D000B042F8D10A4B40F201220A490AA0FDF7A1
:1029E00067FC08485C30FDF763FC304600F054FBA0
:1029F0002846BDE8F0414FF0FF3100F0FFBE000077
:102A000022620008943B000825733A256420257350
:102A10002829206D7174745F6D73675F68616E64DF
:102A20006C65725F6C6973742064656C65746500B5
:102A3000AFF300802DE9F0479AB0044600201890CB
:102A40006FF003065822904902A8FDF792FEACB140
:102A500094F84C00012816D0206B31094FF4007215
:102A6000022801D9884200D32263606B022801D971
:102A7000884200D36263E06938B10AE06FF0010078
:102A80001AB0BDE8F0870020FAE7606B01F044FB64
:102A9000E061206A18B9606B01F03EFB2062E069DA
:102AA000002867D0206A002864D0D4E903120023EC
:102AB000A06E01F079FAA06E01F072FA0500DFD184
:102AC000714B4FF477721B3B70A17AA0FDF7F0FBBE
:102AD00082A0FDF7EDFBA08CADF8200094F8280053
:102AE000C0F340008DF8220094F82800C0F30310D2
:102AF0008DF810002068059060681290A06815900D
:102B0000A06AC10711D000F001008DF82300A06C6D
:102B100080680E90A06C00788DF84500A06C40781D
:102B20008DF84400A06C40680B90A18C4FF47A7033
:102B3000414304F1780001F033FC04F15000824677
:102B400001F014FB02AA616B206AFFF733F9071E3C
:102B50004FF4806975DD19A801F02AFC19A8E16A13
:102B600001F01EFC19AA3946204600F09DFD050023
:102B70005DD10DE0444B40F2C5321B3B43A158A050
:102B8000FDF796FB55A0FDF793FB6FF0020077E78A
:102B900002270DF16408FD1E404601F00CFC40B90F
:102BA0004146204600F0F7FA0546B84210D0002D05
:102BB000F2DA022D0CD0344B40F207421B3B33A11A
:102BC00050A0FDF775FB45A0FDF772FB35462EE0E2
:102BD0002D4B40F2FD321B3B2CA152A0FDF768FBB0
:102BE0003EA0FDF765FB18A9481C236BE269FEF7C0
:102BF0008FFF01280DD0244B35461B3B40F2044289
:102C000022A14EA00096FDF753FB34A0FDF750FB28
:102C10000DE01D4B9DF860501B3B4A461BA147A091
:102C20000095FDF745FB2DA0FDF742FB45B10021C6
:102C3000204600F0E3FD504601F09DFA28461FE7CC
:102C4000FFE7E06E40B10121204600F0D7FDA06A09
:102C500020F00C00A062EEE732210520CDE9000152
:102C60004B4622463C493DA001F077FBE066002838
:102C7000EDD00121204600F0C1FDE06E01F08CFB9B
:102C8000E06E01F086FBE2E7986200082E2E5C6D94
:102C9000717474636C69656E745C6D717474636C6B
:102CA00069656E745C6D717474636C69656E742EA5
:102CB0006300000025733A256420257328292E2EF1
:102CC0002E206D71747420636F6E6E656374207353
:102CD0007563636573732E2E2E0000000D0A0000CD
:102CE00025733A256420257328292E2E2E206D6108
:102CF0006C6C6F6320627566206661696C65642E1A
:102D00002E2E000025733A25642025732829206380
:102D1000616E6E6F742067657420434F4E4E414361
:102D20004B00000025733A2564202573282920676D
:102D3000657420434F4E4E41434B000025733A25A6
:102D400064202573282920434F4E4E41434B207267
:102D500063203D2025640000313E00086D717474CD
:102D60005F7969656C645F74687265616400000016
:102D70002DE9F04192B01646884607464FF0FF35E0
:102D800000F026F8040006D032464146684600F0BE
:102D9000F3F9226909E0D7F8800050B13246414684
:102DA000684600F0E9F9D7F8802069463846904730
:102DB0000025F068FDF722FC0146F068FDF713FDE1
:102DC000D8E90110FDF70FFD12B02846BDE8F081EB
:102DD0002DE9F041846D0F4600F15806256836E074
:102DE000E16891B33846FEF792FFA8BBD7E901101E
:102DF0000144E26820E000BF90F800C0BCF12F0F52
:102E00000AD02B2B0BD0232B13D0634518D12B2B9F
:102E100005D0232B0DD00DE02F2B11D10AE0431C40
:102E200001E0831C401C8B4204D21B782F2BF8D16D
:102E300000E0481E401C521C13780BB18842DBD3C3
:102E4000884202D113F0FF0F07D02C462D68B44200
:102E5000C6D10020BDE8F081FFE72046FAE770B553
:102E600004465430054601F081F9E08CA0F57F411D
:102E7000FE3906D0401CE084284601F07CF9E08C45
:102E800070BD0120F7E7000010B504460C2001F0EA
:102E900043F9A066011E39D00020086048608860B0
:102EA0000121E18494F828104FF47A62E26284F8F8
:102EB0004C00E063206414226064A2844021A1627B
:102EC000A064A0614FF47A71E067A163C4F8800048
:102ED00004F1580000F0E7F804F1600000F0E3F8B6
:102EE00004F1500001F03AF904F1540001F036F910
:102EF00004F1700001F05CFA04F1740001F058FA7A
:102F000004F1780001F054FA002010BD064B40F2A5
:102F10002C4206A10FA0FDF7CBF918A0FDF7C8F9C8
:102F20006FF0020010BD0000F06200082E2E5C6DF4
:102F3000717474636C69656E745C6D717474636CC8
:102F400069656E745C6D717474636C69656E742E02
:102F50006300000025733A256420257328292E2E4E
:102F60002E206D616C6C6F63206D656D6F727920C2
:102F70006661696C65642E2E2E0000000D0A00004B
:102F800090F94C00032804D0012805D06FF00D0003
:102F900070476FF0170070470020704738B504463F
:102FA000FFF7EEFF050034D104F1740001F003FADD
:102FB00028B904F1780001F0FEF9002828D094F82F
:102FC000280010F00C0F10D0124B40F2754212A1E5
:102FD0001BA0FDF76DF922A0FDF76AF9022120463A
:102FE00000F00CFC6FF00D0512E0616B206AFEF73B
:102FF000A8FF011E04DD6A46204600F055FB054689
:10300000A06A4FF0804101EB30104FEA3070A062AF
:10301000284638BD666400082E2E5C6D717474639A
:103020006C69656E745C6D717474636C69656E74E3
:103030005C6D717474636C69656E742E630000005E
:1030400025733A256420257328292E2E2E20706999
:103050006E67206F75747374616E64696E670000CB
:103060000D0A000010B5842001F056F8040006D0C7
:103070008421FDF7DAFB2046FFF706FF08B10020A8
:1030800010BD204610BD4B680A461946FFF7DABA54
:1030900003C8416008607047D0E900124A601160BF
:1030A0000060406070470060406070470168814286
:1030B00001D101207047002070472DE9F0410746FB
:1030C00015460E46142001F027F8040007D0FFF73C
:1030D000EAFF2672C4E903752046BDE8F0810020AE
:1030E000FBE710B5040006D0FFF7D2FF2046BDE88D
:1030F000104001F031B810BD2DE9FC4704465830AE
:103100000E460746FFF7D2FFD8B9A46D16E0E06877
:1031100098B1D6F80C9082464846FDF76FFA804683
:103120005046FDF76BFA01464046414505D102463F
:1031300049465046FDF781FA30B12C46BC4225681D
:10314000E5D10020BDE8FC87F168E068CDE9000129
:10315000064B40F2D11206490648FDF7A9F804488B
:103160005C30FDF7A5F80120ECE7000008620008DC
:10317000943B00080465000870B54C681646054687
:103180003F2C00DB3F2489682246FDF7ADFA002082
:1031900028552E6470BD70B586B00E4600250A46CF
:1031A000044603A9039500F0E5F903990E295DD2C1
:1031B000DFE801F0595C5C32073737075C145C19B3
:1031C0005C552046FFF7DCFE28BB206B009001AA6F
:1031D00004A902A8E369FEF777FC37E031462046F0
:1031E00000F002FC3FE0ADF800502046FFF7C8FEBB
:1031F00088B96846226BE169FEF73CFD012832D1AF
:1032000001ABBDF800200B212046FFF78DFB019894
:1032100008B1FFF766FF26E03146204600F038F996
:1032200021E02046FFF7ACFEE8B9206B009001AA30
:1032300004A902A8E369FEF747FC012813D19DF811
:103240000820BDF80410204600F0DEF80023BDF889
:1032500004209DF808102046FFF766FB03E0A06AF3
:1032600020F00C00A0622046FFF798FE002800D155
:10327000039806B070BD00002DE9F047064690F8AF
:103280004C004FF0000888B014464FF0FF35474619
:103290008946012806D06FF00D00C2F8088008B0FA
:1032A000BDE8F087E06820B1A16811B9FDF7A6F983
:1032B000A06006F15000824600F058FF207858B117
:1032C000B06A4021B1EB102F02D86FF015054AE02B
:1032D0003046FFF7C4FDA080D4E90201CDE9029792
:1032E0000497CDE90510A1886078CDE90001237825
:1032F0000022716B306AFEF727FE071E33DD0146A0
:1033000007AA304600F0D0F905002CD1207850B340
:10331000306A0090306A0190306A4FF0010968B15C
:10332000684601F027FD414660F3070108090328BC
:1033300004D169F3C30101A802F00AF92078012839
:1033400002D0022806D00EE0CDF80080BBB2A288E1
:10335000042104E0CDF80080A288BBB205213046EC
:10336000FFF75CFA05465046C4F8088000F003FFFA
:1033700015F1160F01D0E81C0DD1084B40F2655233
:1033800007A111A0FCF794FF1EA0FCF791FF0221FA
:10339000304600F033FA284681E7000083640008D5
:1033A0002E2E5C6D717474636C69656E745C6D71E6
:1033B0007474636C69656E745C6D717474636C694C
:1033C000656E742E6300000025733A256420257312
:1033D00028292E2E2E207468657265206973206E50
:1033E0006F7420656E6F756768206D656D6F72799B
:1033F00020737061636520746F207265636F7264FF
:103400002E2E2E000D0A00002DE9FC410446164622
:103410000D4601A800F0CCFF01A8E16A00F0C0FF52
:1034200004F15000074600F0A1FE052E04D0062E40
:1034300015D06FF0090525E0009500230622616B89
:10344000206AFEF793FC064600200090B3B22A469D
:1034500007212046FFF7E2F9050013D107E00095A8
:1034600000230722616B206AFEF780FC0646002ECF
:1034700002DC6FF00A0505E001AA3146204600F0A3
:1034800013F90546384600F076FE2846BDE8FC8173
:103490002DE9F0438DB0002688460446374607964E
:1034A000FFF76EFD050014D107AAE169206B0292B7
:1034B000CDE9031008AB0AA8CDE9000305A8031D58
:1034C000421C09A9801CFEF751FB012804D06FF0B3
:1034D00010000DB0BDE8F083099810F0FF008DF8E2
:1034E00014002FD004F15000814600F03FFE9DF8FB
:1034F0001400012802D0022808D012E0BDF81800FC
:10350000009000230422616B206A06E0BDF81800D9
:10351000009000230522616B206AFEF727FC061E3F
:1035200005DC6FF01105484600F025FE1FE001465E
:103530004246204600F0B8F80546484600F01BFE1B
:10354000002D14DB9DF8140002280BD1B3B20097B4
:10355000BDF8182006212046FFF760F9054610F156
:10356000170F04D005AA0AA92046FFF701FC284638
:10357000AFE700002DE9F74F4FF0000882B05FEA97
:10358000010905464FF00107444618D0DFF814B191
:10359000B81ECBF80000049800F00AFFE96A04980E
:1035A00000F0FEFE049800F013FFAE6E03463A46AC
:1035B0003046E96900F002FD01285DD104E06FF0BA
:1035C000010005B0BDE8F08F049800F001FF01266E
:1035D000B246019005E000BF0AF1010ABAF1040FFA
:1035E00010DCA86E01226946019B00F0E7FC01286F
:1035F00008D19DF8000000F07F0101FB0644F601B0
:103600000006E9D4E86921463844FEF76BFBC61989
:10361000286B311981421FD927460026DDF810801A
:10362000B84200D80446404600F0D2FED5F868C043
:10363000034622466046E96900F0C0FC28B1064412
:103640002C6BB91BA14200D20C46BE4201DA002805
:10365000E9D16FF00700B4E7CBF80040002C0EDD95
:10366000049800F0B5FE0346E86922468119A86E69
:1036700000F0A4FCA04202D06FF00600A1E7E869C8
:103680000178404661F307000109C9F80010A98CD0
:103690004FF47A70414305F1780000F081FE00207C
:1036A0008FE70000B40000202DE9F04105460E46EA
:1036B00017460024104600F07BFE3846E96A00F009
:1036C0006FFE0CE0384600F083FE0346286A32465F
:1036D0000119A86E00F074FC002807DD0444B44210
:1036E00004DA384600F067FE0028EBD0B4420AD175
:1036F000A98C4FF47A70414305F1740000F050FE3C
:103700000020BDE8F0816FF01200FAE710B530B18B
:10371000826A61F341028262C2F3400010BD064B2F
:1037200040F25D4205A10FA0FCF7C2FD15A0FCF719
:10373000BFFD002010BD0000A26300082E2E5C6DAE
:10374000717474636C69656E745C6D717474636CB0
:1037500069656E745C6D717474636C69656E742EEA
:103760006300000025733A256420257328292E2E36
:103770002E20636865636B20666F72206572726FBE
:10378000722E00000D0A000010B510B1016008464D
:1037900010BD064B40F2544205A10FA0FCF788FD76
:1037A00015A0FCF785FD002010BD0000FA6200089E
:1037B0002E2E5C6D717474636C69656E745C6D71D2
:1037C0007474636C69656E745C6D717474636C6938
:1037D000656E742E6300000025733A2564202573FE
:1037E00028292E2E2E20636865636B20666F722059
:1037F0006572726F722E00000D0A000070B50446EB
:1038000054300D46064600F0B1FC84F84C5030466A
:10381000BDE8704000F0AFBC10B510B1C160084603
:1038200010BD064B40F2574205A10FA0FCF740FD2A
:1038300015A0FCF73DFD002010BD0000326300081C
:103840002E2E5C6D717474636C69656E745C6D7141
:103850007474636C69656E745C6D717474636C69A7
:10386000656E742E6300000025733A25642025736D
:1038700028292E2E2E20636865636B20666F7220C8
:103880006572726F722E00000D0A000010B510B143
:103890008160084610BD064B40F2564205A10FA0BC
:1038A000FCF706FD15A0FCF703FD002010BD00008D
:1038B000206300082E2E5C6D717474636C69656EF4
:1038C000745C6D717474636C69656E745C6D717435
:1038D00074636C69656E742E6300000025733A256D
:1038E0006420257328292E2E2E20636865636B20A3
:1038F000666F72206572726F722E00000D0A0000F2
:1039000010B510B10161084610BD064B4FF48B6233
:1039100005A10FA0FCF7CCFC15A0FCF7C9FC00200A
:1039200010BD0000406300082E2E5C6D717474633E
:103930006C69656E745C6D717474636C69656E74CA
:103940005C6D717474636C69656E742E6300000045
:1039500025733A256420257328292E2E2E2063688E
:1039600065636B20666F72206572726F722E000045
:103970000D0A000010B510B14160084610BD064B9D
:1039800040F2554205A10FA0FCF792FC15A0FCF7F0
:103990008FFC002010BD00000D6300082E2E5C6D12
:1039A000717474636C69656E745C6D717474636C4E
:1039B00069656E745C6D717474636C69656E742E88
:1039C0006300000025733A256420257328292E2ED4
:1039D0002E20636865636B20666F72206572726F5C
:1039E000722E00000D0A000030B587B0044600209A
:1039F0000490029003902046FFF7C2FA00280DD1F0
:103A0000216BE069CDE9000102AB04AA012105A800
:103A1000FEF7F2F8012803D06FF00C0007B030BDBC
:103A20000298802815D0002503ABBDF81420092189
:103A30002046FEF779FF039868B17DB1FFF751FB8F
:103A400011A0FCF735FC1748FCF732FC6FF00E00B4
:103A5000E4E70125E8E76FF00200DFE7054644B13F
:103A600029462046FFF748FB30B12846FFF739FBCF
:103A700007E06FF00100D1E704F158012846FFF795
:103A800002FB0020CAE7000073756273637269620B
:103A90006520746F706963206661696C65642E2EA1
:103AA0002E000000F03B00082DE9FF4788B00446D7
:103AB000002004900391059094F84C001F4688461E
:103AC0006FF01306012803D0B01D0CB0BDE8F087DD
:103AD00004F15000824600F049FB2046FFF7BFF991
:103AE00081460AAA03A901208DE807004B4600225F
:103AF000616B206AFEF77AFA051E17DD014606AAF9
:103B00002046FFF7D1FD060010D107B90D4F9DF8F3
:103B100028103A464046FFF7D0FA60B10090ABB2A9
:103B20004A4609212046FEF779FE0646504600F037
:103B300022FB3046C9E7504600F01DFB6FF0020043
:103B4000C3E700007526000838B5054690F84C001C
:103B50006FF0030401280CD02846FEF769FF04002B
:103B600007D1284600F046F8044600212846FEF713
:103B7000ACFE60420090064B40F24D2205A10FA022
:103B8000FCF796FB1AA0FCF793FB204638BD00001B
:103B90004A6200082E2E5C6D717474636C69656EE8
:103BA000745C6D717474636C69656E745C6D717452
:103BB00074636C69656E742E6300000025733A258A
:103BC0006420257328292E2E2E206D717474207484
:103BD000727920636F6E6E65637420726573756CA5
:103BE00074206973202D307825303478000000006F
:103BF0000D0A00002DE9F04106466FF014051D4B3B
:103C000040F22D221CA126A0FCF752FB2EA0FCF7AF
:103C10004FFB06F158000746FFF748FA60B1154B15
:103C20004FF40C7214A129A0FCF742FB26A0FCF76C
:103C30003FFB0020BDE8F081B06D40F239280468F8
:103C400014E0D0E90313027A3046FFF72DFF054652
:103C500010F1160F08D1074B424607A126A0FCF72A
:103C600027FB19A0FCF724FB20462468B842E8D1C2
:103C70002846DFE7356200082E2E5C6D7174746390
:103C80006C69656E745C6D717474636C69656E7477
:103C90005C6D717474636C69656E742E63000000F2
:103CA00025733A256420257328292E2E2E206D7128
:103CB00074742074727920726573756273637269AB
:103CC0006265202E2E2E00000D0A000025733A2575
:103CD000642025732829206D7174745F6D73675F8C
:103CE00068616E646C65725F6C69737420697320BF
:103CF000656D70747900000025733A256420257382
:103D000028292E2E2E206D7174742061636B20681B
:103D1000616E646C6572206E756D20746F6F206DBE
:103D2000756368202E2E2E00F8B50E4604004FF065
:103D3000000501D01EB103E04FF0FF30F8BDE66A88
:103D4000684600F035FB3146684600F029FB04F177
:103D500070063DE094F94C00032816D001281BD0D2
:103D60002046FFF7F1FE050032D0304600F023FB7D
:103D700070B13046A16B00F013FBE26F12B1204628
:103D8000A16990476FF00F0527E06FF01700F8BDAD
:103D900015F1100F1CD120E069462046FFF7FBF912
:103DA000050004D401212046FEF78FFD10E015F137
:103DB0000E0F12D10A4B4FF461720AA113A0FCF747
:103DC00077FA1AA0FCF774FA3046A16B00F0E8FA13
:103DD000684600F0F0FA0028BCD02846F8BD000084
:103DE000606200082E2E5C6D717474636C69656E80
:103DF000745C6D717474636C69656E745C6D717400
:103E000074636C69656E742E6300000025733A2537
:103E10006420257328292E2E2E206D717474206E37
:103E20006F7420636F6E6E65637400000D0A00008E
:103E300070B5044690F84C0001280CD01B4B4FF491
:103E400066721BA124A0FCF733FA31A0FCF730FA0C
:103E5000E06E00F0A2FA4FF469752046E16AFFF7C0
:103E600063FF10F1180F0BD01030F6D10F4B2A461C
:103E70000FA128A0FCF71CFA25A0FCF719FAECE723
:103E80000A4B40F29F320AA12DA0FCF711FA20A0A4
:103E9000FCF70EFAA06E00F085F82046FEF776FDDE
:103EA000E06EBDE8704000F04DBA00006B620008A3
:103EB0002E2E5C6D717474636C69656E745C6D71CB
:103EC0007474636C69656E745C6D717474636C6931
:103ED000656E742E6300000025733A2564202573F7
:103EE00028292E2E2E2C206D717474206973206E5B
:103EF0006F7420636F6E6E656374656420746F20E9
:103F0000746865207365727665722E2E2E0000002F
:103F10000D0A000025733A256420257328292E2ECA
:103F20002E2C206D717474207265636F6E6E6563E4
:103F3000742074696D656F75742E2E2E2E0000002E
:103F400025733A256420257328292E2E2E2C206DCA
:103F500071747420636C65616E2073657373696F2F
:103F60006E2E2E2E2E00000010B504460022D4E93D
:103F7000000100F019F9A060002800DB002010BD4E
:103F800010B5040002D0A06800F0FCF84FF0FF303C
:103F9000A06010BD806800F083B9806800F09AB915
:103FA000FFF7E2BFFFF7ECBF28B14FF0FF3380E827
:103FB0000E00002070476FF001007047FFF7EABF66
:103FC000FFF7EBBF10B5EFF3058149B9EFF31081AF
:103FD00031B908490968022905D1EFF3118111B1FE
:103FE0006FF0050403E0002408B101F09BF82046BF
:103FF00010BD00008C000020EFF3058058B9EFF3EE
:10400000108040B909490868022801D030B109E0A0
:10401000EFF3118030B16FF00500704701200860A8
:10402000002070474FF0FF30704700008C000020E8
:1040300010B5EFF3058060B9EFF3108048B90B4974
:104040000868022802D0012806D00BE0EFF31180A7
:1040500040B16FF0050010BD0220086001F098F932
:10406000002010BD4FF0FF3010BD00008C0000207C
:10407000F0B585B04FEA01034FF00004EFF305817E
:104080000394A9BBEFF3108191BB2249096802296F
:1040900002D1EFF3118159BB50B34FF400761821D0
:1040A0008DF8104004AD42B3176807B13D469769DB
:1040B0001FB139467F1E382F02D21779FF0702D071
:1040C000002005B0F0BD576907B1BE08D2F808C09E
:1040D000BCF1000F0DD0D4685C2C18D312693AB132
:1040E00037B18DE806103246294601F028FE0390CC
:1040F0000DE0D7685FB912694AB903AACDE9001289
:10410000B2B2294601F0EEFD012800D003940398D5
:10411000D7E700008C00002070B5054600F02CFDAC
:104120000400294602D0FCF75EFB02E002A0FCF787
:10413000BFF8204670BD0000706C6174666F726DD0
:104140005F6D656D6F72795F616C6C6F632825645C
:1041500029206572720D0A0000F044BF10B50446B4
:10416000012001F079FA2060002010BD00684FF0B6
:10417000FF3101F0C1BC002300681A46194601F066
:1041800011BB000010B54FF4FA7203A103A0FCF7B5
:104190004DFD002010BD00004F4B000041542B434B
:1041A0004950434C4F5345002DE9F0438846814622
:1041B00099B020A522A44FF4FA6224A124A0FCF710
:1041C00035FD4FF0FF3600282BD14FF44870FCF737
:1041D000FFFD4FF4FA773A461CA11FA0FCF726FD1D
:1041E00000281ED123462A461EA16846FCF76CF81B
:1041F00041F28834224615A16846FCF717FD80B9C4
:104200003A4612A11CA0FCF711FD43464A461DA1E7
:104210006846FCF759F822460CA16846FCF706FDF3
:1042200018B1304619B0BDE8F083FCF7B5FC0020AA
:10423000F8E70000573230313331344800000000D5
:10424000686567756F62616F000000004F4B00008A
:1042500041542B525354000041542B43574D4F446B
:10426000453D310041542B43574A41503D2225736F
:10427000222C22257322000041542B434950434CE9
:104280004F53450041542B43495053544152543DE0
:1042900022544350222C222573222C25732C3000CB
:1042A0002DE9F0411F4614460D4600F08FF82646D2
:1042B000074405E021462846FCF756FC0544241A2D
:1042C00000F084F8B84201D2002CF3D1301BBDE8D5
:1042D000F081000070B516460D46022A04D16A78B6
:1042E00029780CA0FBF7E4FF0FA0FBF7E1FF002407
:1042F00004E0295D10A0FBF7DBFF641CB442F8DB8F
:104300000FA0FBF7D5FF31462846BDE87040FCF70B
:1043100017BD000064617461733A20307825782CF1
:1043200020307825780D0A0053656E642050616353
:104330006B65743A200000002530327820000000C0
:104340000D0A000010B5040002D0206800F010FF34
:104350002046BDE81040FFF7FFBE2DE9FC470746A9
:104360001D46164689460420DDF82880FFF7D4FE56
:104370000446CDE90084AAB233463946484601F0E6
:10438000B1FC0128204602D0FFF7E6FE0020BDE880
:10439000FC87006800F0BEBF7047006801F03CB8C1
:1043A00070B50C46054601F003FD2044286070BD41
:1043B00000210160704710B5044601F0F9FC216846
:1043C000884201D9012010BD002010BD01F0F0BCD1
:1043D00010B5044601F0ECFC2168814201D80020B0
:1043E00010BD081A10BD00002DE9F041134C0F4616
:1043F000054666692068001D00F062FD681C07D153
:1044000037B12168BDE8F0410D48091D00F0AABD93
:1044100020683544B5424560216805D2A068BDE8F2
:10442000F041091D00F086BD6068091D00F082FDA5
:10443000206B854200D22563BDE8F0813C0000205E
:10444000480B00202DE9F041054600F097FD2D4C6A
:104450002069401C206120682B4F10B1E06930B307
:104460002BE025602069012827D1002606EB860075
:1044700007EB800000F050FD761C382EF6D3234861
:1044800000F04AFD2148143000F046FD1F48283056
:1044900000F042FD1D483C3000F03EFD1B4850300E
:1044A00000F03AFD194860601430A06005E0206813
:1044B000E96AC06A884200D82560E06A401CE06270
:1044C0006864E86AA169884200D9A06100EB8000B5
:1044D00007EB8000291D00F045FD00F06FFDE0694D
:1044E00000280CD02068E96AC06A884207D20849CF
:1044F0004FF080500860BFF34F8FBFF36F8FBDE860
:10450000F08100003C00002098060020F80A0020FE
:1045100004ED00E038B500F031FD104CA068C8B9DA
:104520000F4800F0F9FC0E48143000F0F5FC0C4880
:104530002060143060600A4B00202833009003F1A3
:10454000500210210A2001F0B6F8A06010B105A1B8
:1045500000F0B2FDBDE8384000F030BD780000202A
:104560005C0B0020546D72510000000030B4026CEE
:104570000B46002A0BD0C1681144C1604468A142B7
:1045800001D30168C16030BC1846FCF7ADB830BC3F
:1045900070472DE9F041856B174604460026026CF2
:1045A00082B1C7B1E068FCF79FF8E168206C091A96
:1045B000E1602268914202D26168081AE060022F2D
:1045C00016D017E02068A8B9606801F05BFC0646C9
:1045D000002060600EE0A068FCF786F8216CA068FF
:1045E0000844A0606168884204D32068A06001E0AC
:1045F00005B16D1E6D1CA5633046BDE8F08110B598
:10460000044690F8590058B101280CD002280FD068
:10461000502080F31188BFF34F8FBFF36F8FFEE7F9
:10462000206B00F0DFFC2046BDE8104000F0DABC53
:1046300010BD000010484FF43051420706D0C01D95
:104640000D4920F00700411AC1F530510B4A0023F3
:104650000144C2E900030839103A21F00701116052
:104660004B600B600B1AC0E9001393604FF00040E1
:104670005360D060704700002C190020A00000207B
:10468000144E154CA6F29C474FF08058DFF84C9022
:1046900012E000BF00F072FCF068C568281D00F051
:1046A0000FFC2069401E2061E068401EE06000F0C1
:1046B00085FC2846FFF7A3FFE0680028EAD13868A8
:1046C0000128F9D9C9F80080BFF34F8FBFF36F8F6E
:1046D000F2E70000340B00203C00002004ED00E075
:1046E000002807D00021416001600B460A46C160E6
:1046F00001F058B87047000070B51D46049C51B1D8
:10470000C4F80020C4E90F010121204601F006F899
:1047100084F84C5070BD2460F4E72DE9F0470E4654
:10472000DDE909841746824691009946089DA52235
:10473000206BFCF750F86FF00301206B01EB870151
:10474000084420F00707780707D0502080F311882D
:10475000BFF34F8FBFF36F8FFEE72218315C82F8F3
:104760003410315C11B1401C1028F6D3002684F8B7
:104770004360382D00D33725E562C4E91356201D68
:1047800000F0D5FB04F1180000F0D1FB2461C5F165
:1047900038006462A061666584F858604A465146F4
:1047A000384600F061FA2060B8F1000F01D0C8F877
:1047B0000040BDE8F087000030B5114900E0114627
:1047C0000A688242FBD34B685C18844203D140687C
:1047D00018444860084643681C18944209D1084CA4
:1047E000103C2468A24209D052681A4442600A6808
:1047F00012680260814200D0086030BD0460F9E7B1
:10480000A000002070B5002441600B4D0061914272
:1048100006D8D11A8269914206D2011D686807E064
:104820009A4203D2994201D3012403E0011D286872
:1048300000F080FB204670BD7800002010B50446D3
:1048400000F09CFBA06B28B15FF0000400F0B6FB09
:10485000204610BD0124F9E730B589B0304D55E050
:104860000498002806DADDE90601059A90470498C5
:1048700000284BDB069C606910B1201D00F020FB76
:1048800002A800F0B9F8024604980A283ED2DFE8F0
:1048900000F00505053D263705053D260598A1696B
:1048A000034601442046FFF7ADFF00B3616A20468E
:1048B0008847E069012829D1002000900598A16966
:1048C000002342181946204601F022FC78B95020F6
:1048D00080F31188BFF34F8FBFF36F8FFEE705980A
:1048E000A06128B1811813462046FFF78BFF0DE029
:1048F000502080F31188BFF34F8FBFF36F8FFEE717
:1049000094F82C0010B9204600F06CFB002204A99A
:10491000A86801F055F80028A2D109B030BD000008
:10492000780000202DE9FC410F46054600F0C2FD4D
:1049300001A800F061F80446019818B101F056FB97
:10494000BDE8FC81224EAFB170680068A8B30027B3
:10495000291B3A46B06800F0C3FB01F047FB002872
:10496000EED11C494FF080500860BFF34F8FBFF36A
:104970006F8FE5E7A542EBD801F038FB306827469A
:10498000C068C468201D00F09BFAE069012810D1BE
:10499000A0692B4641193A462046FFF733FF40B144
:1049A00000200346014600902A46204601F0B0FB55
:1049B00020B1616A20468847C2E707E0502080F3B3
:1049C0001188BFF34F8FBFF36F8FFEE70127BFE75B
:1049D0007800002004ED00E006484168096829B12C
:1049E0004168C968C9684968016370474FF0FF3181
:1049F000FAE700003C00002070B5054601F0D8F948
:104A0000064E04463069844203D200F009F80120C2
:104A100000E0002028602046346170BD780000204E
:104A2000F8B5194D1FE0C068C4680668201D00F085
:104A300047FA616A20468847E069012813D1A069D6
:104A40003044B04206D924616060211D286800F01E
:104A500071FA08E0002003460146009032462046E5
:104A600001F056FB38B1286801680029DBD169687C
:104A7000C5E90010F8BD502080F31188BFF34F8FB7
:104A8000BFF36F8FFEE70000780000200848406801
:104A9000401C4FF0500080F3118804D0BFF34F8FBB
:104AA000BFF36F8FFEE7BFF34F8FBFF36F8FFEE74C
:104AB000A8000020002150B10A4B42699A420FD150
:104AC000806AA3F1280290420AD040B108E0502049
:104AD00080F31188BFF34F8FBFF36F8FFEE7012183
:104AE00008467047480B0020074C2068016841B118
:104AF000C0680021D0F80000FFF714FFFFF7ACFEFC
:104B0000F3E701210020F7E7780000202DE9F041CC
:104B1000044600F033FA94F9455004F1240609E004
:104B2000606A48B1304601F029FA08B100F070FB24
:104B30006D1E6DB2002DF3DC4FF0FF3684F845603A
:104B400000F03CFA00F01AFA94F9445004F110070E
:104B500009E0206948B1384601F010FA08B100F0C8
:104B600057FB6D1E6DB2002DF3DC84F84460BDE888
:104B7000F04100F023BA00002DE9F041054600277E
:104B800000F098FC314E306808B9FFF753FDF0682B
:104B900005424BD1C5B3083568070ED005F00700B4
:104BA000C0F108000544680707D0502080F3118841
:104BB000BFF34F8FBFF36F8FFEE72DB37068854251
:104BC00034D82248103001460C6801E020460C46DB
:104BD0006168A94202D221680029F7D131688C426C
:104BE00024D007682168016060680837411B1029DC
:104BF0000FD96019420708D0502080F31188BFF305
:104C00004F8FBFF36F8FFEE710E041606560FFF7E5
:104C1000D3FD61687068401A7060B268904200D23B
:104C2000B060F06801430020C4E9000101F0DEF942
:104C3000780707D0502080F31188BFF34F8FBFF360
:104C40006F8FFEE73846BDE8F0810000900000203D
:104C50000449086818B10868026D521C02650868AA
:104C6000704700003C00002010B5031F4FF0807417
:104C70001C601B1F21F001011960191F024B0B6002
:104C8000143940380A6010BD8D4A000870B5FFF72E
:104C90009DFB094A0324116880EA0103B3FBF4F584
:104CA00004FB153320FA03F319441160BDE870408A
:104CB0004840FDF721BD0000B80000202DE9F05F5D
:104CC0000746401CFFF728FA06000CD0FFF7DEFF6E
:104CD00086EA000108448146FDF70EFD0024A24645
:104CE0004FF01A0B32E00020BDE8F09F89EA000087
:104CF000FDF702FD05460320B5FBF0F100FB115066
:104D0000B0F1000806D001280DD0B8F1020F23D071
:104D1000782012E02846FDF7EFFC90FBFBF20BFB3E
:104D20001200413009E004F001006840FDF7E4FCA6
:104D300090FBFBF20BFB120061300D49305585EA08
:104D4000010004EA080188402844641CBC42CDD319
:104D500006F807A03046C7E704F002006840FDF7F8
:104D6000CBFC0A2190FBF1F201FB12003030E4E7AA
:104D7000C6E533B4016811F8012B01601046704795
:104D800001684A7811F8023B016002EB03221046E9
:104D90007047F0B5054608680026101A17460C46FD
:104DA00001280CDD0846FFF7EBFF686021680A1850
:104DB000BA4204D8A9602168012608442060002076
:104DC00028603046F0BD000070B5086C0C46C16824
:104DD00017A0FBF76DFA206C19A1C068FBF7FCFB6C
:104DE0001E4D20B11EA0FBF763FA012209E0206CE2
:104DF0001EA1C068FBF7F0FB48B123A0FBF758FAEF
:104E000000222846BDE870400221FCF7FFB8206C64
:104E100020A1C068FBF7E0FB002808D024A0FBF726
:104E200047FA2846BDE870400221FCF7E7B870BD9C
:104E3000476574206D73673A2025730D0A000000E2
:104E400022646576223A226C6564222C2273746196
:104E5000747573223A2230220000000000080140DD
:104E60006C6564206F66660D0A000000226465763A
:104E7000223A226C6564222C227374617475732249
:104E80003A223122000000006C6564206F6E0D0A2A
:104E90000000000022646576223A226C6564222CB0
:104EA00022737461747573223A223222000000006A
:104EB0006C6564207377697463680D0A00000000F4
:104EC000D0E9013201699A60D0E901235A604A6849
:104ED000824201D182684A60002202610868401E55
:104EE0000860086870470000044B036003F15C0031
:104EF00008604FF40070106070470000740C0020D0
:104F0000044B036003F15C0008604FF48070106094
:104F100070470000D014002000F108014FF0FF326C
:104F2000C0E90112C16001610021016070470021E8
:104F30000161704730B50B685A1C02D000F10802BD
:104F400002E0026904E02246546825689D42FAD9CD
:104F500053684B6099608A60516008610168491C20
:104F6000016030BD42684A6093688B609368596005
:104F7000916008610168491C01607047502080F30E
:104F80001188BFF34F8FBFF36F8F0A494868401CE9
:104F9000486001280CD10848006810F0FF0F07D0C6
:104FA000502080F31188BFF34F8FBFF36F8FFEE760
:104FB00070470000A800002004ED00E008494868A0
:104FC00028B1401E486001D180F3118870475020FD
:104FD00080F31188BFF34F8FBFF36F8FFEE70000A0
:104FE000A800002070B5002827D0144DA0F10804B7
:104FF0006168E868014207D1502080F31188BFF34F
:105000004F8FBFF36F8FFEE722683AB1502080F3D5
:105010001188BFF34F8FBFF36F8FFEE7814361604D
:1050200000F048FA60686968084468602046FFF745
:10503000C3FBBDE8704000F0D9BF70BD90000020F8
:105040004FF0E02000210161816105494FF47A723F
:105050000968B1FBF2F1491E416107210161704706
:105060003800002010B5FBF7E3F8114910280ED3E3
:1050700000F1E02090F8F0030A78904207D2502027
:1050800080F31188BFF34F8FBFF36F8FFEE709489E
:105090000068896800F4E060884207D9502080F3F6
:1050A0001188BFF34F8FBFF36F8FFEE710BD000075
:1050B000A80000200CED00E010B5084B002200BF56
:1050C00053F832401CB1521C082AF9D310BD43F8E2
:1050D000321003EBC201486010BD000058060020EA
:1050E00070B515460E460446FFF748FF94F9441084
:1050F0000020491C01D184F8440094F94510491C52
:1051000001D184F84500FFF759FFA06B28B92A4662
:10511000314604F1240000F099F82046BDE87040C3
:10512000FFF7F4BC10B5020014D00F48806B38B103
:10513000502080F31188BFF34F8FBFF36F8FFEE7CE
:1051400000F0B8F900211046FFF74EF900F04EFFCD
:10515000002807D105494FF080500860BFF34F8FFA
:10516000BFF36F8F10BD00003C00002004ED00E095
:1051700070B50546FFF702FF1E4C05B92568281DCE
:10518000FFF79EFEA86A18B105F11800FFF798FE18
:10519000E06A401CE0622068854207D1291D16485C
:1051A000FFF7E0FEE068401CE06007E02069401E79
:1051B00020612846FFF723FAFFF70EFCFFF7FEFEFB
:1051C000E069002814D02068854211D1A06B38B165
:1051D000502080F31188BFF34F8FBFF36F8FFEE72E
:1051E00006494FF080500860BFF34F8FBFF36F8FB9
:1051F00070BD00003C000020340B002004ED00E0F6
:1052000002498A6A02604969416070473C00002097
:1052100001490120486270473C00002010B50C464F
:1052200050B1094909681831FFF784FE2046BDE8EE
:1052300010400121FFF7D8B8502080F31188BFF348
:105240004F8FBFF36F8FFEE73C00002070B5144610
:105250000D4668B10A4909681831FFF783FE0CB1A1
:105260004FF0FF3521462846BDE87040FFF7BCB837
:10527000502080F31188BFF34F8FBFF36F8FFEE78D
:105280003C00002070B504003ED0226DA2B1E06C5D
:10529000884200D30146E06A884235D0012A33D1E2
:1052A0001A4D2A6894420FD1502080F31188BFF321
:1052B0004F8FBFF36F8FFEE7502080F31188BFF34D
:1052C0004F8FBFF36F8FFEE7E162A269002A02DB16
:1052D000C1F13801A1610E4E00EB8000616906EB5F
:1052E0008000814210D1201DFFF7EAFDE06AA96924
:1052F000884200D9A86100EB800006EB8000211DE8
:10530000BDE87040FFF72EBE70BD00003C000020DD
:105310009806002070B504002AD01A4D28688442EF
:105320002ED0FFF72BFE2046FFF7C4FBE0B1201D77
:10533000FFF7C6FDE06AA969884200D9A861124951
:1053400000EB800001EB8000211DFFF70BFEE06AFF
:105350002968C96A884207D30C494FF08050086019
:10536000BFF34F8FBFF36F8FBDE87040FFF726BECE
:10537000502080F31188BFF34F8FBFF36F8FFEE78C
:1053800070BD00003C0000209806002004ED00E005
:1053900030B587B00024039405AA04A903A8049497
:1053A000FFF7A2FDDDE903010094CDE90110002320
:1053B00015A11748059A00F0C2FC164D0028686335
:1053C0001FD000F075FE012809D0401C19D15020D3
:1053D00080F31188BFF34F8FBFF36F8FFEE750202C
:1053E00080F31188BFF34F8FBFF36F8F4FF0FF3003
:1053F00028630120E8616C6107B0BDE8304000F02F
:10540000D7B807B030BD000049444C45000000004B
:10541000814600083C00002070B50446FFF7AEFD51
:10542000214D04B92C68201DFFF74AFDA06A18B170
:1054300004F11800FFF744FD211D1C48FFF792FD01
:1054400094F858000026012801D184F85860FFF72D
:10545000B5FDE86928B1FFF791FDFFF7BDFAFFF749
:10546000ADFD2868844213D1E86990B1A86B38B1CA
:10547000502080F31188BFF34F8FBFF36F8FFEE78B
:105480000B494FF080500860BFF34F8FBFF36F8F11
:1054900070BD064800682969884201D12E6070BD40
:1054A000BDE8704000F00EB83C000020480B002022
:1054B00004ED00E00248816B491C816370470000E5
:1054C0003C000020164810B5816B11B101214162EA
:1054D00010BD002141628169124A01E0B9B1491E43
:1054E00001EB810352F82330002BF7D001EB81034D
:1054F00002EB830202F1080453685B685360A34225
:1055000001D15B685360DA680260816110BD502090
:1055100080F31188BFF34F8FBFF36F8FFEE700005A
:105520003C0000209806002070B504460E46084650
:10553000FBF764F805460146204600F00FF82A46BE
:1055400031462068FBF7D0F820682844206070BD01
:10555000026811700168491C0160704710B5CA17D4
:10556000046801EB12631A0A22700268521C02607E
:1055700011700168491C016010BD70B5141E1E46F3
:1055800005460BDD1146FFF7E9FF22463146286844
:10559000FBF7AAF828682044286070BD19B1BDE85F
:1055A0007040FFF7C1BFBDE870400021FFF7D6BFD4
:1055B0001CB5264908780190FF20087008788DF8FE
:1055C00000009DF800009DF8002000F0F0009042DF
:1055D00007D0502080F31188BFF34F8FBFF36F8F38
:1055E000FEE79DF800001A4B00F0500018700720ED
:1055F000986005E09DF8002052008DF80020401EC4
:105600009DF800201206F5D49860032807D050209A
:1056100080F31188BFF34F8FBFF36F8FFEE74FF416
:1056200040709860019808700A48016841F4700160
:105630000160016841F070410160FFF701FD002049
:105640005860FAF7BFFD00201CBD000000E400E038
:10565000A800002020ED00E010B502460021012046
:1056600000F005F80446FFF73BF8204610BDF8B5FA
:1056700017460E46050014D0DEB105FB06F050308B
:10568000FFF77AFA04000AD0002084F8460004F1FB
:1056900050023B46314628460094FFF72DF820463D
:1056A000F8BD502080F31188BFF34F8FBFF36F8F89
:1056B000FEE70020E3E738B5049D18B153B1CAB145
:1056C00081B120E0502080F31188BFF34F8FBFF3EA
:1056D0006F8FFEE7502080F31188BFF34F8FBFF329
:1056E0006F8FFEE7502080F31188BFF34F8FBFF319
:1056F0006F8FFEE739B1502080F31188BFF34F8FD1
:10570000BFF36F8FFEE750241C46012384F8463018
:105710002B460094FEF7F0FF204638BD70B50D46CD
:10572000040025D0FFF72AFCD4E90F20216802FBF2
:10573000001161600021A1632168A1600A46D4E9DB
:105740000F01401E00FB0121E16021464FF0FF30B8
:1057500001F8440F487004F110008DB1FFF7DCFB35
:1057600004F12400FFF7D8FBFFF728FC012070BDEF
:10577000502080F31188BFF34F8FBFF36F8FFEE788
:1057800021690029F0D000F0F9FB0028ECD0044991
:105790004FF080500860BFF34F8FBFF36F8FE3E788
:1057A00004ED00E02DE9FF4782B01D468A464FF028
:1057B0000008040003D0BAF1000F08D011E0502017
:1057C00080F31188BFF34F8FBFF36F8FFEE7206C1C
:1057D00038B1502080F31188BFF34F8FBFF36F8F24
:1057E000FEE7022D0AD1E06B012807D0502080F39C
:1057F0001188BFF34F8FBFF36F8FFEE700F0CAFA37
:105800003F4F4FF000094FF0805648B9049838B127
:10581000502080F31188BFF34F8FBFF36F8FFEE7E7
:10582000FFF7ACFBA06BE16B884207D3022D05D0DC
:105830000498D0B1B8F1000F1AD01EE02A465146A4
:105840002046FEF7A6FE616A19B104F1240000F0BB
:1058500095FB20B13E60BFF34F8FBFF36F8FFFF713
:10586000ADFB012006B0BDE8F087FFF7A7FB22E003
:105870006846FFF7C5FC4FF00108FFF79FFBFFF7F5
:1058800019FEFFF77BFB94F94400401C01D184F81A
:10589000449094F94500401C01D184F84590FFF7ED
:1058A0008DFB04A9684600F0E3F930B12046FFF70C
:1058B0002DF900F09BFB0020D4E7FFF75FFBA06B06
:1058C000E16B884213D1FFF779FB04F110000499D2
:1058D000FFF7A4FC2046FFF719F900F087FB00282A
:1058E0009ED13E60BFF34F8FBFF36F8F98E7FFF7F6
:1058F00065FB2046FFF70AF900F078FB90E700000F
:1059000004ED00E02DE9F0471F469046894604006B
:1059100003D0B9F1000F08D011E0502080F31188B6
:10592000BFF34F8FBFF36F8FFEE7206C38B150206D
:1059300080F31188BFF34F8FBFF36F8FFEE7022F05
:105940000AD1E06B012807D0502080F31188BFF303
:105950004F8FBFF36F8FFEE7FFF784FB5020EFF30D
:10596000118680F31188BFF34F8FBFF36F8FA06B49
:10597000E16B884206D3022F04D0002086F3118801
:10598000BDE8F08794F945503A4649462046FEF76F
:1059900000FE681C04D06D1C84F845500120EDE722
:1059A000606A0028FAD004F1240000F0E7FA002829
:1059B000F4D0B8F1000FF1D00121C8F80010EDE7E4
:1059C0002DE9F747002683B08A46040003D0BAF1D8
:1059D000000F08D011E0502080F31188BFF34F8FE3
:1059E000BFF36F8FFEE7206C38B1502080F3118831
:1059F000BFF34F8FBFF36F8FFEE700F0CBF9DFF8F7
:105A0000F4804FF000094FF0805748B9059838B13D
:105A1000502080F31188BFF34F8FBFF36F8FFEE7E5
:105A2000FFF7ACFAA56BC5B151462046FEF79EFDC7
:105A30006D1EA563206950B104F1100000F09EFABC
:105A400028B1C8F80070BFF34F8FBFF36F8FFFF717
:105A5000B5FA012006B0BDE8F087059808B11EB17F
:105A600006E0FFF7ABFA27E06846FFF7C9FB01261F
:105A7000FFF7A4FAFFF71EFDFFF780FA94F9440040
:105A8000401C01D184F8449094F94500401C01D198
:105A900084F84590FFF792FA05A9684600F0E8F807
:105AA000002820460AD0FFF731F800F09FFA204680
:105AB000FEF7C4FE0028B3D00020CBE7FEF7BEFE01
:105AC00090B104F124000599FFF7A8FB2046FFF7E9
:105AD0001DF800F08BFA0028A2D1C8F80070BFF3BF
