:020000040800F2
:10000000E02A0020DD010008792600083D1C0008D8
:100010007526000855050008152C00080000000092
:100020000000000000000000000000004501000882
:100030005905000800000000890100083527000864
:10004000F7010008F7010008F7010008F7010008B0
:10005000F7010008F7010008F7010008F7010008A0
:10006000F7010008F7010008F7010008F701000890
:10007000F7010008F7010008F7010008F701000880
:10008000F7010008F7010008F7010008F701000870
:10009000F7010008F7010008F7010008F701000860
:1000A000F7010008F7010008F7010008F701000850
:1000B000F7010008F7010008F7010008F701000840
:1000C000F7010008F7010008F7010008F701000830
:1000D000F7010008492B0008F70100087D2B0008F4
:1000E0005B050008F7010008F7010008F7010008A8
:1000F000D1270008F7010008F7010008F701000800
:10010000F7010008F7010008F7010008F7010008EF
:10011000F7010008F7010008F7010008F7010008DF
:10012000F7010008F7010008F7010008F7010008CF
:10013000DFF80CD000F004F9004800474132000815
:10014000E02A0020224B19680868B0E8F00F80F31D
:100150000988BFF36F8F4FF0000080F311884EF0D5
:100160000D0E70470000000006480068006880F32C
:10017000088862B661B6BFF34F8FBFF36F8F00DFA1
:1001800000BF00BF08ED00E0EFF30980BFF36F8F01
:100190000F4B1A6820E9F00F106008B54FF05000BF
:1001A00080F31188BFF34F8FBFF36F8F06F0F2FB20
:1001B0004FF0000080F31188BDE808401968086816
:1001C000B0E8F00F80F30988BFF36F8F704700BF6E
:1001D0001C000020EFF305807047000006488047B0
:1001E00006480047FEE7FEE7FEE7FEE7FEE7FEE71C
:1001F000FEE7FEE7FEE7FEE7CF2700083101000833
:10020000202A04DB203A21FA02F00021704721FA6B
:1002100002F3D040C2F120029140084319467047D2
:100220000649074A0868504343F2390210440860FF
:10023000400870470149086070470000B400002082
:100240006D4EC64140EA01039B0703D009E008C98F
:10025000121F08C0042AFAD203E011F8013B00F88B
:10026000013B521EF9D27047D2B201E000F8012BD7
:10027000491EFBD270470022F6E710B513460A4626
:1002800004461946FFF7F0FF204610BD30B505467D
:100290002A460B4612F8010B13F8014B08B1A04295
:1002A000F8D01CB1002802D06D1CF1E7284630BD03
:1002B000421C10F8011B0029FBD1801A704730B591
:1002C00005460020034600E05B1C934205D2EC5C2F
:1002D000C85C201A01D1002CF6D130BD2DE9F05FA9
:1002E0000546002092469B468846064681464024A5
:1002F0001BE02846414647462246FFF781FF53460A
:100300005A46C01A914110D311461846224600F0B1
:1003100029F82D1A67EB01084F46224601200021DB
:1003200000F020F817EB00094E41201EA4F1010453
:10033000DFDC484631462A464346BDE8F09F0000D0
:10034000064C074D06E0E06840F0010394E8070022
:1003500098471034AC42F6D3FFF7EEFE747F0008E6
:10036000947F0008202A04DB203A00FA02F10020E2
:1003700070479140C2F1200320FA03F319439040E3
:100380007047000010B5084804F068FE064804F005
:1003900072FE064804F062FE044804F06CFE044855
:1003A00005F0ADFE002010BDA0000020A40000203C
:1003B000681E002070B505460E4600BF0949284654
:1003C00005F0A3FE08B9002070BD3146064804F0D0
:1003D0005AFE044614B96FF00100F5E7012CEDD088
:1003E0000020F1E7681E0020A40000209AB000243D
:1003F0004CE001A908194FF0FF3100F01DF9002C65
:1004000040D0601E01A9085C0D283BD101A8005D09
:100410000A2837D1002101AA601C11541CA101A88F
:10042000FFF734FF60B1224601A91B48FFF70AFF1E
:10043000002002F067F9194804F02DFE002422E0A4
:1004400017A101A8FFF722FF40B14FF0FF3002F0E3
:1004500059F9124804F01FFE002414E001A800F02E
:10046000C1F840B14FF0FF3002F04CF90B4804F0F6
:1004700002FE002407E001A800F0CEF818B101A8A0
:1004800002F0FCF8641C642C00DB0024B1E70000DF
:100490004F4B0D0A0000000070220020A000002039
:1004A0004552524F520D0A002DE9F04706460C46C0
:1004B00017469A463046FFF7FBFE814649463046CE
:1004C00000F0C2F8022111A000F0BEF8104806604A
:1004D0004FF47A710F4804F0D6FD8046B8F1000F52
:1004E00011D000F079F8054655B94CB1642F01DD03
:1004F000642000E03846024607492046FFF7A2FE86
:100500002846BDE8F0874FF47A70FAE70D0A00003C
:10051000AC000020A0000020702200202DE9F04156
:1005200004460D4690462946204600F08DF84FF4CB
:100530007A71074804F0A7FD06462EB100F04CF88A
:1005400007463846BDE8F0814FF47A70FAE70000BC
:10055000A000002000BFFEE7704710B54FF48040B8
:1005600000F098F94FF4004000F094F910BD00003D
:1005700010B501220021252000F0F2FB252000F01B
:10058000DFFB04480068C06840F06000014909686A
:10059000C86010BD0C05002010B50F2200212720D7
:1005A00000F0DEFB272000F0CBFB08480068006865
:1005B00020F0200005490968086004480068C06808
:1005C00040F0200001490968C86010BD50050020B6
:1005D00072B600BFFEE700000148006870470000E7
:1005E000A800002010B504460748006850B107A1D4
:1005F00005480068FFF74AFE20B120783E2801D167
:10060000012010BD0020FCE7AC00002041542B432A
:10061000495053454E443D0010B5044604A12046C0
:10062000FFF734FE08B1012010BD0020FCE70000F8
:100630002B4950442C00000070B504460D46294655
:10064000204602F0BDFA70BD70B504460D4629463D
:10065000204602F0C9FA70BD0146002291F821003F
:10066000022808D00420886300BF002081F8200001
:1006700000BF012070470868006820F00E000B687A
:1006800018600868006820F001000B68186091F895
:10069000403001209840CB6B5860012081F8210048
:1006A00000BF002081F8200000BF1046E2E70000F4
:1006B00070B50446002594F82100022803D00420D8
:1006C000A0630125C1E02068006820F00E002168C9
:1006D00008602068006820F00100216808605C491B
:1006E0002068884252D95A4978392068884201D115
:1006F000012047E0564964392068884201D1102022
:1007000040E0534950392068884201D1801539E0D2
:100710004F493C392068884201D1801432E04C496D
:1007200028392068884202D14FF480302AE04849B5
:1007300014392068884202D14FF4801022E04449E5
:100740002068884201D140041CE042492068884268
:1007500001D1012016E03F4914312068884201D1BF
:1007600010200FE03B4928312068884201D18015D4
:1007700008E038493C312068884201D1801401E00A
:100780004FF480303349091F086051E0304978390F
:100790002068884201D1012047E02D496439206852
:1007A000884201D1102040E0294950392068884210
:1007B00001D1801539E026493C392068884201D1B1
:1007C000801432E0224928392068884202D14FF44F
:1007D00080302AE01E4914392068884202D14FF443
:1007E000801022E01A492068884201D140041CE0B0
:1007F00018492068884201D1012016E015491431BA
:100800002068884201D110200FE012492831206869
:10081000884201D1801508E00E493C3120688842A9
:1008200001D1801401E04FF48030094980394860DB
:10083000012084F8210000BF002084F8200000BFC0
:10084000606B10B12046616B8847284670BD000080
:10085000800002400804024010B50446B4F5804F01
:1008600007D14FF48041084800F0C2F907490870E9
:1008700009E0B4F5004F06D14FF40041024800F002
:10088000B7F90349087010BD001801401700002097
:100890001800002010B5044604480068204020B12C
:1008A000024804602046FFF7D7FF10BD1404014042
:1008B0002DE9F847024600239C467BE14FF00108F2
:1008C00008FA03F4D1F8008008EA0400A0427DD1C0
:1008D000DFF8F4A2D1F80480A8EB0A09D0453AD099
:1008E00014DCB8F1030F50D009DCB8F1000F31D09F
:1008F000B8F1010F1CD0B8F1020F49D120E0B8F1D6
:10090000110F18D0B8F1120F42D11EE0B9F5881FAF
:1009100025D006DCB9F5803F20D0B9F5801F37D14E
:100920001AE0B9F5001F18D0B9F5041F30D117E04F
:10093000D1F80CC02DE0D1F80C8008F1040C28E0AF
:10094000D1F80C8008F1080C23E0D1F80C8008F1F4
:100950000C0C1EE000BF00BF00BF00BF00BF00BF07
:10096000D1F80880B8F1000F02D14FF0040C0BE071
:10097000D1F80880B8F1010F03D14FF0080C1461D1
:1009800002E04FF0080C546103E04FF0000C00E06F
:1009900000BF00BFFF2801D8904601E002F1040823
:1009A0004646FF2802D84FEA830803E0A3F108086F
:1009B0004FEA88084746D6F800804FF00F0909FA39
:1009C00007F928EA09080CFA07F900E07AE048EA92
:1009D0000908C6F80080D1F8048008F08058B8F102
:1009E000805F6FD100BFDFF8E481D8F8188048F04D
:1009F0000108DFF8D891C9F81880C846D8F81880DF
:100A000008F00108CDF8008000BF00BF4FEAB938F8
:100A10004FEA930958F829504FEA83784FEA18793A
:100A20004FF00F0808FA09F825EA0805DFF8A08159
:100A3000424502D14FF0000824E0DFF8988142459A
:100A400002D14FF001081DE0DFF88C81424502D150
:100A50004FF0020816E0DFF88481424502D14FF0E2
:100A600003080FE0DFF87881424502D14FF0040817
:100A700008E0DFF87081424502D14FF0050801E03F
:100A80004FF006084FEA83794FEA197908FA09F816
:100A900048EA0505DFF850814FEA930948F82950E4
:100AA000D1F8048008F48038B8F5803F0BD1DFF826
:100AB0003C81D8F8008048EA0008DFF83091C9F896
:100AC00000800AE075E0DFF82481D8F8008028EA89
:100AD0000008DFF81891C9F80080D1F8048008F404
:100AE0000038B8F5003F0ED1DFF8008108F10408A6
:100AF000D8F8008048EA0008DFF8F09009F104090E
:100B0000C9F800800DE0DFF8E48008F10408D8F8A7
:100B1000008028EA0008DFF8D49009F10409C9F838
:100B20000080D1F8048008F48018B8F5801F0ED139
:100B3000DFF8B88008F10808D8F8008048EA000813
:100B4000DFF8A89009F10809C9F800800DE0DFF886
:100B50009C8008F10808D8F8008028EA0008DFF82F
:100B60008C9009F10809C9F80080D1F8048008F4D4
:100B70000018B8F5001F0ED1DFF8708008F10C08DE
:100B8000D8F8008048EA0008DFF8609009F10C0905
:100B9000C9F800800DE0DFF8548008F10C08D8F89F
:100BA000008028EA0008DFF8449009F10C09C9F830
:100BB00000805B1CD1F8008028FA03F8B8F1000F20
:100BC0007FF47CAEBDE8F8870000111000100240F1
:100BD00000080140000C01400010014000140140D9
:100BE00000180140001C01400800014000040140C1
:100BF000024693680B400BB1012000E000207047D3
:100C00000AB1016101E00B0403617047014800680B
:100C10007047000004000020034800680349097879
:100C20000844014908607047040000200C000020BF
:100C300010B50848006840F010000649086003201D
:100C400000F0CCF80F2000F007F800F049F8002081
:100C500010BD00000020024070B588B00446002599
:100C60000026002221462C2000F07AF82C2000F0EB
:100C700067F800BF1648806940F400501449886145
:100C80000846806900F40050019000BF00BF02A92F
:100C900003A800F07DF900F0B3F905460D48B5FB57
:100CA000F0F0461E0C480D49086040F2E7310B4851
:100CB000C160466000210161816000F02FFC20B915
:100CC000064800F05FFC08B070BD0120FBE70000A3
:100CD0000010024040420F0000340140C4040020D4
:100CE00008B500BF1448806940F0010012498861CE
:100CF0000846806900F00100009000BF00BF00BFFF
:100D00000846C06940F08050C8610846C06900F0DC
:100D10008050009000BF00BF00220F21901E00F005
:100D20001FF800BF0549486820F0E06040F00070FF
:100D3000486000BF08BD00000010024000000140F4
:100D400001460846002809DB00F01F0301229A40F3
:100D500043099B0003F1E023C3F8002100BF704763
:100D60002DE9F05F80460D461646002701F078FF1A
:100D7000074639462A46334601F00700C0F1070A04
:100D8000BAF1040F02D94FF0040A01E0C0F1070ADA
:100D9000D14600F1040ABAF1070F02D24FF0000A5F
:100DA00001E0A0F1030AD4464FF0010A0AFA09FA59
:100DB000AAF1010A0AEA020A0AFA0CFA4FF0010B38
:100DC0000BFA0CFBABF1010B0BEA030B4AEA0B0429
:100DD0002146404601F04CFFBDE8F09F00BF00F007
:100DE0000702064B19684FF6FF031940044B0B43EB
:100DF00043EA0221014B196000BF70470CED00E08F
:100E00000000FA0570B504460D460CB9012070BD0E
:100E10005A48006800F00700A8420ED25748006800
:100E200020F007002843554908600846006800F094
:100E30000700A84201D00120E9E7207800F0020075
:100E400002281DD1207800F00400042805D14C4868
:100E5000406840F4E0604A494860207800F00800AB
:100E6000082805D14648406840F46050444948602D
:100E70004348406820F0F000A168084340494860BA
:100E8000207800F0010078B36068012806D13C4862
:100E9000006800F4003090B90120B8E760680228CB
:100EA00006D13748006800F0007040B90120AEE775
:100EB0003348006800F0020008B90120A7E7304875
:100EC000406820F00300616808432D494860FFF73F
:100ED0009DFE064609E0FFF799FE801B41F288312E
:100EE000884202D9032092E707E02548406800F0D5
:100EF0000C006168B0EB810FEDD12048006800F074
:100F00000700A8420ED91D48006820F007002843BA
:100F10001A4908600846006800F00700A84201D09E
:100F2000012074E7207800F00400042807D1144859
:100F3000406820F4E060E168084311494860207887
:100F400000F00800082808D10D48406820F46050DF
:100F5000216940EAC1000A49486000F061F8084987
:100F60004968C1F30311074A515CC840064908604B
:100F700006480068FFF770FE002048E700200240A6
:100F800000100240747B00081000002008000020C0
:100F90000F2202600D4A526802F0030242600B4ABF
:100FA000526802F0F0028260084A526802F4E0627D
:100FB000C260064A526802F46052D2080261044AD2
:100FC000126802F007020A60704700000010024039
:100FD0000020024001480068704700001000002017
:100FE00000B5FFF7F7FF04494968C1F30221034A3E
:100FF000515CC84000BD000000100240847B000826
:1010000000B5FFF7E7FF04494968C1F3C221034A6D
:10101000515CC84000BD000000100240847B000805
:10102000F0B585B00FF26C0C9CE8E01001A8A0E8C8
:10103000E0101CA52D68009500210022002300244B
:101040000020194D696801F00C05F5B1042D02D09E
:10105000082D19D101E0154819E001ADC1F383460F
:10106000AC5D01F4803555B10F4D6D68C5F3404559
:101070001DF805200D4D6543B5FBF2F302E00C4D64
:1010800004FB05F3184602E000BF084800BF00BF9C
:1010900005B0F0BD02030405060708090A0B0C0D94
:1010A0000E0F1010010200000010024000127A0022
:1010B00000093D00F8B504460CB90120F8BD2078C0
:1010C00000F00100002878D0F848406800F00C00DB
:1010D00004280CD0F548406800F00C00082811D115
:1010E000F248406800F48030B0F5803F0AD1EF4804
:1010F000006800F4003000285FD0606800285CD1F0
:101100000120DBE700BF6068B0F5803F06D1E7480B
:10111000006840F48030E549086028E0606858B90C
:10112000E248006820F48030E04908600846006822
:1011300020F4802008601AE06068B0F5A02F0BD181
:10114000DA48006840F48020D84908600846006802
:1011500040F4803008600AE0D448006820F4803011
:10116000D24908600846006820F48020086000BF6B
:10117000606888B1FFF74AFD054606E0FFF746FDC7
:10118000401B642801D9032098E7C848006800F490
:1011900000300028F2D010E0FFF738FD054606E0E9
:1011A000FFF734FD401B642801D9032086E7BF48C0
:1011B000006800F400300028F2D1207800F002002E
:1011C000022857D1B948406800F00C0050B1B74828
:1011D000406800F00C00082818D1B448406800F4BA
:1011E000803098B9B148006800F0020020B1206951
:1011F000012801D0012061E7AC48006820F0F80028
:10120000616940EAC100A949086033E02069E8B19A
:101210000120A7490860FFF7F9FC054606E0FFF743
:10122000F5FC401B022801D9032047E79F480068CE
:1012300000F002000028F2D09C48006820F0F8007E
:10124000616940EAC1009949086013E000209849AB
:101250000860FFF7DBFC054606E0FFF7D7FC401B04
:10126000022801D9032029E79048006800F0020015
:101270000028F2D1207800F0080008282DD1A069BC
:10128000B8B101208B490860FFF7C0FC054606E0B5
:10129000FFF7BCFC401B022801D903200EE783485E
:1012A000406A00F002000028F2D0012001F016FA96
:1012B00013E000207F490860FFF7A8FC054606E020
:1012C000FFF7A4FC401B022801D90320F6E677486B
:1012D000406A00F002000028F2D1207800F00400FB
:1012E000042873D100277148C06900F0805070B99C
:1012F00000BF6E48C06940F080506C49C861084624
:10130000C06900F08050009000BF00BF01276A480C
:10131000006800F48070B0B96748006840F48070DD
:1013200065490860FFF772FC054606E0FFF76EFCB2
:10133000401B642801D90320C0E65F48006800F420
:1013400080700028F2D000BFE068012806D157481D
:10135000006A40F001005549086227E0E06858B98A
:101360005248006A20F00100504908620846006AAD
:1013700020F00400086219E0E06805280BD14B4812
:10138000006A40F00400494908620846006A40F0DB
:10139000010008620AE04548006A20F00100434964
:1013A00008620846006A20F00400086200BFE06896
:1013B000A0B1FFF72BFC054609E0FFF727FC401B17
:1013C00041F28831884202D9032077E622E037488B
:1013D000006A00F002000028EFD012E0FFF716FCD0
:1013E000054608E0FFF712FC401B41F288318842B5
:1013F00001D9032062E62D48006A00F002000028AF
:10140000F0D1012F05D12948C06920F0805027492B
:10141000C86100BFE069C8B32448406800F00C0010
:10142000082860D0E069022848D1002020490866D9
:10143000FFF7ECFB054606E0FFF7E8FB401B022840
:1014400001D903203AE61948006800F0007000282E
:10145000F2D1206AB0F5803F07D11448406820F4EB
:101460000030A168084311494860D4E908010843E5
:101470000E49496821F4741108430C494860012061
:101480000B490866FFF7C2FB054607E03DE0FFF7A2
:10149000BDFB401B022801D903200FE6034800686A
:1014A00000F000700028F2D02FE000000010024091
:1014B0000000424280044242007000400020144973
:1014C0000866FFF7A3FB054606E0FFF79FFB401BFE
:1014D000022801D90320F1E50E48006800F00070F1
:1014E0000028F2D111E0E069012800D1E6E50948C1
:1014F000466806F48031206A814204D106F47011F6
:10150000606A814201D00120D8E50020D6E50000C4
:1015100000004242001002407047704710B5044678
:101520000CB9012010BD94F83D0028B9002084F8C2
:101530003C00204600F025F8022084F83D00211DE3
:10154000206801F04DF9012084F8460000BF84F8BE
:101550003E0001213F200155402001554120015509
:1015600000BF00BF012084F8420043200155442001
:1015700001554520015500BF012084F83D000020A1
:10158000D0E77047014691F83D00012801D00120C5
:101590007047022081F83D000868C06840F00100F3
:1015A0000B68D860164B0868984213D0154B086832
:1015B00098420FD00868B0F1804F0BD0124B0868EA
:1015C000984207D0114B0868984203D0104B086826
:1015D00098420CD10868806800F00702062A0CD0F7
:1015E0000868006840F001000B68186005E00868B2
:1015F000006840F001000B6818600020C8E7000098
:10160000002C01400034014000040040000800406C
:10161000000C0040704710B5044620680069C0F314
:101620004000D8B12068C068C0F34000B0B16FF08E
:10163000020021680861012020772068806900F09D
:10164000030018B12046FFF7E5FF05E0204600F053
:10165000ADF8204600F0ABF8002020772068006944
:10166000C0F38000D8B12068C068C0F38000B0B17A
:101670006FF00400216808610220207720688069EB
:1016800000F4407018B12046FFF7C4FF05E0204683
:1016900000F08CF8204600F08AF8002020772068BF
:1016A0000069C0F3C000D8B12068C068C0F3C000B2
:1016B000B0B16FF00800216808610420207720682D
:1016C000C06900F0030018B12046FFF7A3FF05E052
:1016D000204600F06BF8204600F069F800202077E3
:1016E00020680069C0F30010D8B12068C068C0F35A
:1016F0000010B0B16FF01000216808610820207759
:101700002068C06900F4407018B12046FFF782FFDE
:1017100005E0204600F04AF8204600F048F8002096
:1017200020772068006900F0010058B12068C06887
:1017300000F0010030B16FF001002168086120461F
:1017400000F036F820680069C0F3C01058B1206876
:10175000C068C0F3C01030B16FF08000216808612C
:101760002046FFF7D9FE20680069C0F3801058B109
:101770002068C068C0F3801030B16FF0400021686D
:101780000861204600F020F820680069C0F340108E
:1017900058B12068C068C0F3401030B16FF020002D
:1017A000216808612046FFF7B8FE10BD70477047FA
:1017B00010B5044603492068884201D1FFF72CFA8E
:1017C00010BD0000003401407047704770470000B2
:1017D0002DE9F84F0446206805682068C66820682F
:1017E00047694FF00009CA4605F00F09B9F1000F2B
:1017F0000AD105F0200038B106F0200020B12046C3
:1018000001F081F8BDE8F88FB9F1000F71D007F051
:10181000010018B906F4907000286AD005F00100A4
:1018200030B106F4807018B1206C40F001002064E3
:1018300005F0040030B107F0010018B1206C40F051
:101840000200206405F0020030B107F0010018B179
:10185000206C40F00400206405F0080048B106F058
:10186000200010B907F0010018B1206C40F008000A
:101870002064206C68B305F0200028B106F0200039
:1018800010B1204601F03FF820684069C0F3801A8B
:10189000206C00F0080010B9BAF1000F22D02046E9
:1018A00001F006F82068406900F04000B0B12068FF
:1018B000406920F0400021684861A06B50B1564853
:1018C000A16B4863A06BFEF7F3FE10B1A06B416BF8
:1018D00088470CE02046FFF779FF08E02046FFF735
:1018E00075FF04E02046FFF771FF0020206489E7C0
:1018F000FFE7206B012878D105F01000002874D094
:1019000006F01000002870D000BF00200090206872
:101910000068009020684068009000BF00BF206809
:10192000406900F04000C0B3A06B006840681FFA37
:1019300080F8B8F1000F2FD0A08D40452CDDA4F821
:101940002E80A06B806920281FD02068C06820F4FA
:1019500080702168C8602068406920F0010021681B
:1019600048612068406920F04000216848612020DB
:1019700084F83E00002020632068C06820F010003A
:101980002168C860A06BFEF767FEA08DE28D801A0B
:1019900081B22046FFF719FF34E7FFE7A08DE18D04
:1019A000401A1FFA80F8E08DE8B1B8F1000F1AD0A4
:1019B0002068C06820F490702168C8602068406981
:1019C00020F0010021684861202084F83E000020BA
:1019D00020632068C06820F010002168C86041467C
:1019E0002046FFF7F2FE0DE7FFE705F0800030B17B
:1019F00006F0800018B1204601F076F802E705F005
:101A0000400030B106F0400018B1204600F06BFFF6
:101A1000F8E600BFF6E600009D28000810B5044671
:101A20000CB9012010BDA06900B100E000BF94F81E
:101A30003D0028B9002084F83C00204600F028F83A
:101A4000242084F83D002068C06820F400502168FC
:101A5000C860204600F0CAFF2068006920F490406A
:101A6000216808612068406920F02A0021684861E7
:101A70002068C06840F400502168C86000202064DD
:101A8000202084F83D0084F83E000020CAE70000D2
:101A900010B586B004460020029003900490059093
:101AA0003E492068884230D100BF3D48806940F4FB
:101AB00080403B4988610846806900F4804001907D
:101AC00000BF00BF00BF0846806940F00400886185
:101AD0000846806900F00400019000BF00BF48156F
:101AE0000290022003900320059002A92D48FEF7E2
:101AF000DFFE4FF4806002900020039001200490EC
:101B000002A92848FEF7D4FE45E02749206888420C
:101B100041D100BF2248C06940F480202049C861FB
:101B20000846C06900F48020019000BF00BF00BFDC
:101B30000846806940F0200088610846806900F00E
:101B40002000019000BF00BF881502900220039082
:101B50000320059002A91548FEF7AAFE4FF4007075
:101B6000029000200390049002A91048FEF7A0FE06
:101B700000BF0F49486820F0300040F0E06040F0BE
:101B80003000486000BF002205212720FFF7E8F859
:101B90002720FFF7D5F806B010BD0000003801403F
:101BA00000100240000801400048004000140140BD
:101BB00000000140034A0168914202D10121024A1A
:101BC00011707047003801401500002010B5034621
:101BD00093F83D00202823D101B10AB9012010BD9E
:101BE00000BF93F83C00012801D10220F7E7012053
:101BF00083F83C0000BF19629A84DA8400201864DC
:101C0000212083F83D0000BF002083F83C0000BF86
:101C10001868C06840F080001C68E0600020DEE7C3
:101C20000220DCE7034A0168914202D10121024A05
:101C300011707047003801401400002000BFFEE71B
:101C400000B585B00020019002900390049000BF81
:101C50001A48806940F04000184988610846806948
:101C600000F04000009000BF00BF00BF0846806940
:101C700040F0400088610846806900F04000009014
:101C800000BF00BF0E480290012003908003019026
:101C900001A90C48FEF70CFE4FF40040019001A989
:101CA0000848FEF705FE022200212820FFF758F819
:101CB0002820FFF745F805B000BD000000100240E5
:101CC00000003110001801402DE9FE4F04460D467A
:101CD00016461F46DDF830A000200290019780468E
:101CE000814601A804F0DAF98DF808000298C0F3E3
:101CF000C00028700298C0F3031020706946019854
:101D000000F034F98146019908440190DDE90010A2
:101D100000EB01080198A8EB0000022800DA06E0B9
:101D200001A804F0C2F930804FF0010900BF484615
:101D3000BDE8FE8F2DE9FF4704460D46164699463D
:101D400000200390029600278046009002A804F02D
:101D5000A5F98DF80C000398C0F30310022800D0F9
:101D60001FE001A9029800F001F980460299084499
:101D70000290DDE9011047180298381A022800DAAB
:101D80000FE002A804F08AF98DF80000009800F036
:101D90000100207002A804F081F928704FF00108BA
:101DA00000BF404604B0BDE8F0872DE9FF5F06465E
:101DB0000C4617469846DDE90FABDDF83890002059
:101DC000039011980290002500200190009002A835
:101DD00004F064F98DF80C000398C0F30310032895
:101DE00000D032E00398C0F3C00030700398C0F315
:101DF00041002060039800F00100387069460298A5
:101E000000F0B4F8019002990844029000990298F9
:101E100045182A4602A9484604F054F910B1029820
:101E2000281A00D511E02068002804DD02A804F07B
:101E30003CF9A8F800000298281ACBF80000029894
:101E4000CAF800000120019000BF019804B0BDE86D
:101E5000F09F2DE9FE4F05460E4614461F46DDE96C
:101E60000C9B00200290CDF804908046824601A889
:101E700004F014F98DF808000298C0F30310092843
:101E800000D02CE06946019800F070F88246019974
:101E900008440190DDE9001000EB01080198A8EB6F
:101EA0000000022800DA1AE001A804F0FEF82880F9
:101EB000002020600DE02068B04202DD4FF0FF3AC4
:101EC0000DE001A804F0EAF82268511C216047F8EF
:101ED000220001984045EED34FF0010A00BF504662
:101EE000BDE8FE8FFEB504460D4616460020029062
:101EF000019000272B46224601A902A80096FFF771
:101F0000E3FE07469DF808000B2800D1012738465C
:101F1000FEBD2DE9F84305460C46012600270020AA
:101F2000206000BF4FF0FF38781C0746042801DD11
:101F300000BF17E001216846A8478046B8F1010FAD
:101F400000D00FE09DF8001001F07F01206801FB38
:101F500006002060F6019DF8000000F080000028D7
:101F6000E0D100BF3846BDE8F883000070B50446F4
:101F70000D460348046029460248FFF7CAFF70BDBA
:101F8000980000205531000830B50246002300BFFC
:101F90000846CD1701EB5565ED11A1EBC515ECB267
:101FA000CD1701EB5565E911002901DD44F08004EE
:101FB00018465B1C14540029EADC184630BD2DE994
:101FC000F04104460E460027B846206828B125682F
:101FD0002068FEF76DF9074601E0A568676830469E
:101FE000FEF766F98046474508D13A46314628460D
:101FF000FEF765F910B90120BDE8F0810020FBE78C
:10200000401C802801DA401C0AE0B0F5804F01DA5C
:10201000801C05E00349884201DAC01C00E0001D75
:1020200070470000FFFF1F002DE9FC4704460E46E5
:1020300015461F46DDF82880002001908146009457
:10204000042E02DA6FF0010924E0019865F307100D
:102050000190019867F3C3000190062D01D1012181
:1020600000E00021019861F3420001909DF8041006
:10207000684604F0EBFC02210098FFF785FF009909
:10208000084400904146684604F0E6FC0098A0EB46
:10209000040900BF4846BDE8FC8700002DE9FE4367
:1020A00005460E4614460295002001900090002738
:1020B0004FF0FF38204600F0A5F807468146FFF7AD
:1020C0009FFFB04202DD6FF001088FE000208DF825
:1020D0000400019820F0F000103001909DF80410E9
:1020E00002A804F0B3FC39460298FFF74DFF0299AD
:1020F00008440290207A042808D13EA102A804F0E6
:1021000091FC042102A804F0A1FC07E03BA102A875
:1021100004F088FC032102A804F098FC00208DF84C
:102120000000A17E009861F341000090E07E08B1BC
:10213000012100E00021009861F3820000900098E6
:10214000C0F3800058B194F83D10009861F3C400CA
:10215000009094F83C10009861F345100090206CBA
:1021600008B9A06C20B1009820F080008030009069
:10217000E06C08B9606D20B1009820F0400040305C
:1021800000909DF8001002A804F060FC218B02A8CA
:1021900004F062FC02A8D4E90423E16804F074FCB2
:1021A000E07E58B102A8D4E90A23616A04F06CFC0D
:1021B00002A8D4E90D23216B04F066FC0098C0F35B
:1021C000C01028B102A8D4E91123216C04F05CFCF2
:1021D0000098C0F3801028B102A8D4E91423E16C60
:1021E00004F052FC0298A0EB050800BF4046BDE891
:1021F000FE8300004D515454000000004D514973BE
:102200006470000070B504460025207A032801D1CF
:102210000C2503E0207A042800D10A25D4E9041211
:10222000E06800F035F9801C0544E07E68B1D4E92F
:102230000A12606A00F02CF9861CD4E90D12206B9A
:1022400000F026F93044801C0544206C08B9A06CCD
:1022500030B1D4E91112206C00F01AF9801C054449
:10226000E06C08B9606D30B1D4E91412E06C00F094
:102270000FF9801C0544284670BD70B504460D4614
:102280000C222946204600F070F870BD2DE9FF5F52
:1022900005460E4617469846DDE90E9A039500203E
:1022A00002900190009000245146484600F046F804
:1022B00083460190FFF7A4FEB04202DDA01E00900D
:1022C00038E000208DF80800029820F0F0008030FF
:1022D0000290029867F3C3000290029820F0060073
:1022E000801C02909DF8081003A804F0AFFB019930
:1022F0000398FFF749FE039908440390414603A859
:1023000004F0AAFB00240FE004EB44000AEB800C6D
:1023100003A89CE80E0004F0B7FB109810F82410F6
:1023200003A804F093FB641C4C45EDDB0398401BB1
:10233000009000BF009804B0BDE8F09F2DE9F04187
:1023400005460E46022700240AE004EB440006EB93
:10235000800393E8070000F09BF8C01C0744641C4E
:10236000AC42F2DB3846BDE8F0812DE9FC41044681
:102370000D46164600200190471E0094022D01DAFA
:10238000871E15E000208DF80400019866F3071001
:1023900001909DF80410684604F058FB0021009855
:1023A000FFF7F2FD0099084400900098071B00BF5A
:1023B0003846BDE8FC810000002401F035FC0446ED
:1023C00022A1204602F0B0F822A1204602F034F803
:1023D0000A2003F0FBFD05462946204601F0E2FFF6
:1023E0000A2003F0F3FD05462946204602F0D8F8FE
:1023F0000A2003F0EBFD05462946204602F058F876
:102400000121204601F08CFF204601F0FCF828B1A4
:1024100014A000F001FC002004F092F8154B0022FB
:1024200015A1204602F05CF90023012214A12046E8
:1024300002F056F90023022213A1204602F050F9BF
:1024400002E0642004F04EF8FBE700003138383336
:10245000000000003139322E3136382E3139392E14
:102460003134380063616E206E6F74206572720DB6
:102470000A00000059610008746F70696331000040
:10248000746F706963320000746F706963330000A9
:1024900037B50024009820B10098FDF709FF0446E5
:1024A00000E0019C20463EBD10B5094A00210948C4
:1024B00002F054FD08490860054A0021074802F06F
:1024C0004DFD034A0021064802F048FD10BD000002
:1024D000507B00081127000800000020ED030008D1
:1024E000B923000800B585B0002001900290039048
:1024F000049000BF3F48806940F040003D4988613A
:102500000846806900F04000009000BF00BF00BF97
:102510000846806940F0100088610846806900F034
:102520001000009000BF00BF00BF0846806940F067
:10253000800088610846806900F08000009000BF3C
:1025400000BF00BF0846806940F02000886108464F
:10255000806900F02000009000BF00BF00BF084667
:10256000806940F0040088610846806900F004003A
:10257000009000BF00BF012240211F48FEF740FB32
:1025800001224FF478611D48FEF73AFB01224021F9
:102590001B48FEF735FB402001900120029003907C
:1025A0000320049001A91448FEF782F94FF47860E3
:1025B00001900120029003900320049001A90F488C
:1025C000FEF776F94FF44040019000200290012080
:1025D000039001A90848FEF76BF940200190012003
:1025E000029003900320049001A90548FEF760F9CA
:1025F00005B000BD0010024000180140001C014061
:102600000010014010B50B480B4908604FF4E13051
:102610004860002108488160C16001610C2141616E
:1026200000218161C161FFF7F9F908B1FDF7D0FF21
:1026300010BD0000003801400C05002010B50B480B
:102640000B4908604FF4E130486000210848816080
:10265000C16001610C21416100218161C161FFF70D
:10266000DDF908B1FDF7B4FF10BD000000480040DF
:102670005005002000BFFEE700BFFEE7054600242E
:10268000002626E000240FE028194FF0FF31FDF767
:10269000D3FF285D3A2800D107E0285D303806EBEB
:1026A000860100EB4106641CEEE700BF00240EE04B
:1026B00028194FF0FF31FDF7BFFF642C06DA285DC3
:1026C000044903F039FD044802F0E5FC641CB442FF
:1026D000EEDBD7E7681E0020A400002008B50849FB
:1026E0000968C9084FF47A72B1FBF2F141430091D5
:1026F00000BF00BF00994A1E00920029F9D108BD11
:10270000100000200149086070470000A800002068
:1027100003A000F081FA00BF012002F0C1FBFBE73B
:10272000537461727444656661756C745461736B43
:102730000D0A000010B500BF502080F31188BFF3D0
:102740004F8FBFF36F8F00BF04F070FF18B14FF0D1
:1027500080500449086000BF002080F3118800BF4A
:1027600010BD000004ED00E000B58FB0282105A8E1
:10277000FDF781FD14216846FDF77DFD01200590E0
:1027800000040690002007900120099002200C9080
:10279000C1030D914FF4E0110E9105A8FEF78AFCDC
:1027A00008B1FDF715FF0F200090022001900020D6
:1027B00002904FF48060039000200490022168464C
:1027C000FEF720FB08B1FDF703FF0FB000BD704717
:1027D00010B50248FEF71FFF10BD0000C404002022
:1027E00010B50268204B98420ED0204B98420BD077
:1027F000B0F1804F08D01E4B984205D01D4B984237
:1028000002D01D4B984203D122F070024B681A434C
:10281000154B98420ED0154B98420BD0B0F1804F1B
:1028200008D0134B984205D0124B984202D0124B5D
:10283000984203D122F44072CB681A4322F08003FD
:102840004C6943EA040202608B68C3620B688362CE
:10285000054B984202D0054B984201D10B690363A6
:102860000123436110BD0000002C014000340140F1
:102870000004004000080040000C004010B505486E
:1028800002F0ECFB034802F0F6FB034803F037FCD0
:1028900010BD0000B0000020D422002070B5054615
:1028A0006C6A0020E085E0842046FEF78FFF70BD53
:1028B0000168C96821F490710268D16001684969B2
:1028C00021F0010102685161016B012905D1016804
:1028D000C96821F010010268D160202180F83E1003
:1028E00000210163704710B504462068C06820F0DD
:1028F00040002168C860202084F83D002046FFF792
:1029000091F9002010BDF8B5044694F83E00222845
:1029100069D1A068B0F5805F0CD1206950B900255D
:10292000A66A20684068C0F308003080A06A801C56
:10293000A06215E0A56A0026A068B0F5805F03D00C
:10294000A06828B9206918B920684068287004E098
:102950002068406800F07F002870A06A401CA062D8
:10296000E08D401E80B2E085A8BB2068C06820F0E2
:1029700020002168C8602068C06820F48070216849
:10298000C8602068406920F001002168486120206B
:1029900084F83E00206B01281ED1002020632068AF
:1029A000C06820F010002168C8602068006800F04E
:1029B000100010280AD100BF002000902068006895
:1029C000009020684068009000BF00BFA18D2046A5
:1029D000FEF7FBFE03E004E02046FFF7EBF80020E3
:1029E000F8BD0020FCE70220FAE7000070B50446BD
:1029F0002168096921F44051E2681143226811619C
:102A00002269A1681143626941EA02052168C96827
:102A100041F20C62914329432268D16021684969DF
:102A200021F44071A2691143226851612D4A216845
:102A3000914202D1FEF7E4FA01E0FEF7D1FA00EB91
:102A4000C00101EB001162689200B1FBF2F100EBF2
:102A5000C00202EB001263689B00B2FBF3F2642336
:102A6000B2FBF3F202EBC20303EB0212A1EB820111
:102A7000322202EB01116422B1FBF2F101F0F0010C
:102A800000EBC00202EB001263689B00B2FBF3F2A2
:102A90006423B2FBF3F201EB021200EBC00101EB85
:102AA000001163689B00B1FBF3F100EBC00303EB83
:102AB00000136668B600B3FBF6F36426B3FBF6F3C7
:102AC00003EBC30606EB0313A1EB8301322303EBF5
:102AD00001116423B1FBF3F101F00F0111442268ED
:102AE000916070BD00380140014691F83D002128F9
:102AF00028D18868B0F5805F0BD1086948B90A6AA7
:102B00001088C0F308000B685860086A801C0862CF
:102B100005E00B6A581C086218780B685860C88C6E
:102B2000401E80B2C88458B90868C06820F0800090
:102B30000B68D8600868C06840F040000B68D86037
:102B4000002070470220FCE710B500240848006808
:102B500000F0200038B10648001D0068C4B20549E5
:102B6000204603F0E9FA0448FEF732FE10BD0000EB
:102B700000380140BC0000200C05002070B50D4855
:102B8000006806680B480068C56806F0200070B150
:102B900005F0200058B1074800684068C4B20649F3
:102BA000204603F0C9FA054802F07EFA70BD00BF66
:102BB000FCE7000050050020D4220020B0000020D7
:102BC00070B504460D4609E00549204603F09DFA1C
:102BD00000B970BD2946034802F055FAF4E7000039
:102BE000D4220020B000002010B5024600200CE0E6
:102BF000135C074C2468636000BF054B1B681B68AF
:102C000003F08003002BF8D0401C8842F0DB10BD9D
:102C10005005002000BFFEE70FB4054B10B503A917
:102C2000044A029800F060F810BC5DF814FB000044
:102C300015320008B80000200FB4084B10B504A9E5
:102C400002AA039800F050F8044602A9002000F000
:102C50007CFA204610BC5DF814FB00004B310008E4
:102C600002480068C0F30220704700000CED00E04D
:102C700010B5002804DB0A07130E054A135406E0BA
:102C80000A07140E034A00F00F031B1FD45410BD93
:102C900000E400E018ED00E0EFF311807047EFF37F
:102CA00005807047EFF31080704702E008C8121FDC
:102CB00008C1002AFAD170477047002001E001C125
:102CC000121F002AFBD1704750600260416008600B
:102CD000704748600160704710B50446D4E90010A1
:102CE000FFF7F7FF10BD00002DE9FF4F8DB00F4635
:102CF0000546002606E025280BD0DDE90F12904797
:102D00006D1C761C28780028F5D111B03046BDE83E
:102D1000F08F0024A246A1460122EC4900E00443C2
:102D200015F8013F203B02FA03F00842F7D128785A
:102D30002A2810D06FF02F022878A0F1300109293D
:102D400014D80AEB8A0102EB410144F0020400EBC3
:102D5000010A6D1CF0E701CF5FEA000A03D544F4D5
:102D60000054CAF1000A44F002046D1C28782E2891
:102D700017D115F8010F44F004042A280ED06FF083
:102D80002F022878A0F1300109290AD809EB89011E
:102D900002EB410100EB01096D1CF2E757F8049BBF
:102DA0006D1C28786C280FD006DC4C2817D06828BA
:102DB0000DD06A2814D104E0742810D07A280FD1DD
:102DC0000DE044F400140AE044F4801401E044F4FB
:102DD00040146978814202D104F580146D1C6D1C89
:102DE0002A786E2A1FD00CDC632A31D004DC002A3A
:102DF0008BD0582A11D1A3E0642A68D0692A0CD15B
:102E000065E0732A2ED004DC6F2A73D0702A04D1B7
:102E10009BE0752A6FD0782A6ED01046DDE90F123C
:102E20009047761C50E1C4F30250022806D00328D4
:102E300009D0042801CF09D0066045E101CFF11780
:102E4000C0E9006140E101CF06803DE106703BE151
:102E500017F8040B8DF8000000208DF80100EB46F8
:102E6000012003E057F804BB4FF0FF3061074FF03B
:102E7000000102D40DE008F10101884649450FDA4E
:102E80008045F8DB1BF808100029F4D108E008F1B0
:102E9000010188468142FADB1BF808100029F6D1AF
:102EA000DDE90F23AAEB08008146214600F036F940
:102EB000304400EB080604E0DDE90F121BF8010BBB
:102EC0009047B8F10108F7D221464846F7E00A21B9
:102ED000C4F302534FF0000B0891022B04D001CF32
:102EE000C117032B09D00AE0FF1D27F00707F7E8F9
:102EF000020108E032E01FE020E000B2C117042B1D
:102F000001D140B2C117031E71F1000307DA4FF07F
:102F1000000CD0EB0C006CEB01012D2302E023052B
:102F200004D52B238DF82430012303E0E30701D0DF
:102F30002023F7E7984658E00A2110E010210EE020
:102F400010204FF0000B08900CE010214FF0000B08
:102F500044F004044FF00809089103E008214FF001
:102F6000000B0891C4F30253022B04D001CF0021BF
:102F7000032B06D006E0FF1D27F00707F7E8020144
:102F800003E080B2042B00D1C0B24FF00008230749
:102F90002BD5702A07D0DDF820C08CF0100C5CEA2D
:102FA0000B0C05D00EE040238DF82430012308E0FF
:102FB00050EA010306D030238DF824308DF8252007
:102FC00002239846DDF820C08CF0080C5CEA0B0C5C
:102FD0000BD150EA010301D1630706D530238DF8E8
:102FE00024304FF00108A9F10109582A04D038A271
:102FF0000B9208AA0A920BE03AA2F9E75B46089AFC
:10300000FDF76CF90B9B9B5C0A9A521E0A92137097
:1030100050EA0102F2D10A98ADEB000000F1200B5A
:10302000600702D524F4803401E04FF00109D9454E
:1030300002DDA9EB0B0000E0002000EB0B01414496
:103040000890AAEB010AE00306D4DDE90F2321462C
:10305000504600F063F806444FF0000908E009A963
:1030600011F80900DDE90F12904709F10109761CFA
:10307000C145F4DBE0030CD5DDE90F2321465046C2
:1030800000F04CF8064404E0DDE90F1230209047D0
:10309000761C0899481E08900029F5DC08E00A987B
:1030A0000A990078491C0A91DDE90F129047761CB5
:1030B000BBF10001ABF1010BF1DC21465046DDE92B
:1030C0000F2300F019F806446D1C1BE609280100C7
:1030D000303132333435363738396162636465668E
:1030E0000000000030313233343536373839414250
:1030F00043444546000000002DE9F0410446002508
:103100001E461746880404D405E039462020B047FF
:103110006D1C641EF9D52846BDE8F0812DE9F0410B
:10312000044600251E469046C80301D5302700E01E
:103130002027880404D505E041463846B0476D1C79
:10314000641EF9D52846BDE8F0810A68531C0B605F
:103150001070704710B50246002309E00648006869
:103160000078107004480068401C034C20605B1C11
:103170008B42F3DB084610BD980000203EB50546A3
:103180000C46206CC068216C0978064B1122CDE9F1
:103190000041029004A10EA0FFF73EFD18A0FFF72A
:1031A0003BFD3EBD8C7B00082E2E5C4D515454439C
:1031B0006C69656E745C6D717474636C69656E7452
:1031C0005C6D717474636C69656E742E63000000CD
:1031D00025733A256420257328292E2E2E0A746F14
:1031E0007069633A2025732C20716F733A2025642F
:1031F0002C200A6D6573736167653A2573000000C2
:103200000A00000010B504462046FDF713F8FDF74C
:1032100007F810BD13B50C460020074908700122BD
:1032200069460648FEF7D2FC00BF03480078002834
:10323000FBD000981CBD0000140000200C050020ED
:10324000FDF7F6FCFFF790FAFFF74CF9FFF7DAF914
:10325000FFF7F4F9FEF7F4FC0C4802F050FFFFF71B
:103260000DFBFDF785F9FDF797F909A0FFF7D4FCF1
:1032700001F032FEFFF718F9FDF784F801F04CFE7B
:10328000042107A0FFF7B0FC00BFFEE7BC00002050
:1032900048656C6C6F20576F726C64210D0A0000DA
:1032A00041540D0A000000002DE9F04706460F4684
:1032B00090461D46DDF82090002405F1200001F025
:1032C000BBFE044614B90020BDE8F087204600F09C
:1032D000D9FC04F10800F16A02F03BF8E760A4F8B9
:1032E0001080258304F12000E061C4F81490316A55
:1032F0002A46E069FCF7A6FF2046E5E710B504463C
:103300002CB1204600F0AEFC204601F0A1FE10BD1D
:103310003EB505460C4602A8E96A02F01AF804F127
:103320000800E96A02F015F805F1500001F0A3FE6B
:10333000228BE169286AFCF785FF218B02AA2846C7
:1033400000F0B7FF05F1500001F0A5FE208AE1680A
:10335000064B40F26312CDE9001005A10EA0FFF765
:103360005BFC1AA0FFF758FC3EBD0000A07B0008E4
:103370002E2E5C4D515454436C69656E745C6D71B6
:103380007474636C69656E745C6D717474636C697C
:10339000656E742E6300000025733A256420257342
:1033A00028292E2E2E20726573656E6420256420D8
:1033B0007061636B6167652C207061636B65745F1E
:1033C0006964206973202564200000000A00000061
:1033D0002DE9F04705468846914605F1600000F06A
:1033E00054FC10B10020BDE8F0872C6E26680AE07E
:1033F0002746388A484504D1F868404501D1012064
:10340000F1E73446266805F160008442F0D10020DF
:10341000E9E72DE9F84F04460E4617469846DDF8D1
:1034200028904FF0000A00253A4631462046FFF723
:10343000CFFF18B16FF01600BDE8F88F43463A464B
:1034400031462046CDF80090FFF72EFF054615B90E
:103450006FF00200F0E7204600F07EF804F1600112
:10346000284600F0F6FB5046E6E72DE9F041064617
:10347000884606F1600000F008FC20B9304600F0F4
:1034800067FA012801D0BDE8F081356E2F6830E081
:103490002C4604F1080001F069FF18B9B8F1010FDA
:1034A00000D124E0E068042808D0E068052805D0B1
:1034B000E068062802D0E068072804D1214630469B
:1034C000FFF726FF13E0E068092802D0E0680B2828
:1034D00006D1606920B1606900F0F5FB00206061F1
:1034E0002046FFF70BFF304601F056F900BF3D467E
:1034F0002F6806F160008542CAD100BFC3E72DE9FD
:10350000F0470646894692461F4606F1600000F0E5
:10351000BCFB10B10020BDE8F087346ED4F8008009
:1035200014E02546288A504502D1E868484500D075
:1035300009E00FB1686938602846FFF7DFFE3046C2
:1035400001F02AF900BF4446D4F8008006F160007B
:103550008442E6D10020DEE710B5044604F15400B1
:1035600001F089FD0121A06A01EB102161F31F2008
:10357000A06204F1540001F08EFD10BD2DE9F04170
:10358000044604F1600000F080FBC0B9256E2E688F
:103590000FE02F46384600F065FB786920B1786966
:1035A00000F091FB00207861384601F051FD35466E
:1035B0002E6804F160008542EBD100F05AFB94F8CC
:1035C0002800A06204F1580000F05FFBA0B9A56DCF
:1035D0002E680BE0A846404600F044FB0020C8F8E7
:1035E0000C00404601F034FD35462E6804F15800C9
:1035F0008542EFD100F03DFB4FF0FF31204600F057
:103600000DFFBDE8F08110B50446204600F002F839
:1036100010BD000070B59AB0044600252E1F002092
:10362000189058226B4902A8FCF70CFE14B9A81E8A
:103630001AB070BD204600F08BF9012801D100209E
:10364000F6E70023D4E90312A06E01F0F2FB064670
:10365000A06E01F0E2FB064636B1A06E20B1A06E6E
:1036600001F002FC3046E3E75B4B40F2DB325BA14A
:1036700064A0FFF7D1FA6DA0FFF7CEFAA08CADF8E9
:10368000200094F82800C0F340008DF8220094F840
:103690002800C0F303108DF81000206805906068C2
:1036A0001290A068159094F8280000F0010098B1DD
:1036B00094F8280000F001008DF82300A06C8168C8
:1036C0000E91A06C01788DF84510A06C41788DF8B2
:1036D0004410A06C41680B91A08C4FF47A7200FBEF
:1036E00002F104F1740001F034FE04F1500001F025
:1036F000C2FC02AA616B206AFEF7D0FC051E00DC4A
:1037000023E019A8E16A01F024FE19AA29462046FF
:1037100000F0CFFD061E00D017E019AA02212046B6
:1037200001F0A0F902280DD118A9481C236BE26909
:10373000FEF700FB012802D19DF8606004E06FF005
:10374000030601E06FF0030600BF002E34D1E06EE7
:10375000002828D1322005214FF480532246CDE99C
:103760000010334933A001F0C7FDE066E06E50B1B0
:103770000121204600F052FEE06E01F0E3FDE06E14
:1037800001F0DAFD13E0A06E01F06EFB6FF00306AE
:10379000114B40F2114211A12BA0FFF73DFA23A0DB
:1037A000FFF73AFA03E00121204600F037FEA06A55
:1037B00020F00C00A06206E0A06E01F055FB002195
:1037C000204600F02BFE04F1500001F064FC30466E
:1037D0002EE70000347C00081A7C00082E2E5C4D79
:1037E000515454436C69656E745C6D717474636C90
:1037F00069656E745C6D717474636C69656E742E4A
:103800006300000025733A256420257328292E2E95
:103810002E206D71747420636F6E6E6563742073F7
:103820007563636573732E2E2E0000000A0000007E
:10383000614C00086D7174745F7969656C645F74C4
:10384000687265616400000025733A256420257361
:1038500028292E2E2E206D717474207969656C6470
:1038600020746872656164206372656174206661AA
:10387000696C652E2E2E00002DE9F84F05460C468A
:10388000164601274FF000084FF0040A0020206080
:1038900000BF4FF0FF3908F101008046042801DD28
:1038A00000BF1AE0334601226946A86E01F0CEFA45
:1038B0008146B9F1010F00D00FE09DF8001001F032
:1038C0007F01206801FB07002060FF019DF80000D8
:1038D00000F080000028DCD100BF4046BDE8F88F32
:1038E0002DE9F04391B004460D4616464FF0FF38DF
:1038F0002946204600F030F807465FB13246294697
:10390000684600F050FA694620463A6990474FF001
:1039100000080DE0E06F58B132462946684600F0D5
:1039200042FA69462046E26F90474FF0000800BF18
:10393000F068FCF7BDFC81464946F068FCF79BFC4B
:10394000D5E90110FCF797FC404611B0BDE8F083C3
:10395000014691F94C0070472DE9F04106460F46AB
:10396000B56DD5F8008012E02C46E06860B13846AD
:10397000E168FEF724FB20B93946E06800F026FF35
:1039800010B12046BDE8F0814546D5F8008006F12B
:1039900058008542E8D10020F4E710B5044604F150
:1039A000540001F068FBE08C4FF6FE71884201D1B3
:1039B000012001E0E08C401CE08404F1540001F09F
:1039C0006AFBE08C10BD000010B504460C2001F02D
:1039D00033FBA066A06E60B92F4B40F255422FA179
:1039E00038A0FFF719F941A0FFF716F96FF00200B0
:1039F00010BD0021A06E0160416081600120E08463
:103A0000A06A20F00200A062A06A20F00100A0627B
:103A10004FF47A60E062002084F84C00A06A20F045
:103A20000C00A06294F82800A0620020E0632064EB
:103A300060646420A084A06A20F0F0004030A0629E
:103A40004FF47A70A0630020A064A061A067E067D3
:103A50004FF48061204600F055FB4FF48061204612
:103A600001F01AF804F1580000F00CF904F16000BC
:103A700000F008F904F1500001F0F0FA04F15400EC
:103A800001F0ECFA04F1700001F06DFC04F1740037
:103A900001F069FC0020ABE7B77C00082E2E5C4DDE
:103AA000515454436C69656E745C6D717474636CCD
:103AB00069656E745C6D717474636C69656E742E87
:103AC0006300000025733A256420257328292E2ED3
:103AD0002E206D616C6C6F63206D656D6F72792047
:103AE0006661696C65642E2E2E0000000A000000DD
:103AF00070B505462846FFF72BFF0446032C02D17C
:103B00006FF0170070BD012C02D06FF00D00F9E7C7
:103B10000020F7E770B506460C4600252046FCF766
:103B2000C7FB05463046FCF7C3FBA84201D0002086
:103B300070BD2A4621463046FCF7C1FB08B901207A
:103B4000F6E70020F4E70000F8B50446002520461B
:103B5000FFF7CEFF05460DB12846F8BD04F1700011
:103B600001F004FC28B904F1740001F0FFFB002807
:103B70002FD094F82800C0F3810098B1164B4FF471
:103B8000956216A11FA0FFF747F826A0FFF744F89B
:103B9000A06E01F069F90221204600F03FFC6FF0B1
:103BA0000D0516E0616B206AFEF767FB0646002EE6
:103BB0000EDD6A463146204600F07BFB051E07D12C
:103BC00094F828008008401CA16A60F38301A16278
:103BD00000BF2846C1E70000FE7D00082E2E5C4D88
:103BE000515454436C69656E745C6D717474636C8C
:103BF00069656E745C6D717474636C69656E742E46
:103C00006300000025733A256420257328292E2E91
:103C10002E2070696E67206F75747374616E6469AD
:103C20006E6700000A00000070B5802001F004FA01
:103C300005460DB9002070BD80212846FCF71BFB0E
:103C40002846FFF7C1FE04460CB10020F3E72846E2
:103C5000F1E770B505460C46224628466168FFF735
:103C600033F870BD10B50446D4E90010FFF731F801
:103C700010BD10B504462046FFF72EF8204600F090
:103C800001F810BD00604060704701460868884236
:103C900001D1012070470020FCE72DE9F0410546E5
:103CA0000E4617460024142001F0C6F9044614B944
:103CB0000020BDE8F0812046FFF7E4FF267227616F
:103CC000E5602046F5E710B504462CB12046FFF725
:103CD000C9FF204601F0BCF910BD00002DE9FC41F0
:103CE00005460F4605F15800FFF7CFFF10B1002041
:103CF000BDE8FC81AC6DD4F800801AE02646F0687F
:103D0000A0B1F968F068FFF705FF78B1F868F168CD
:103D10000B4B40F2CF12CDE900100AA11348FEF779
:103D20007BFF13A0FEF778FF0120E1E74446D4F8BB
:103D3000008005F158008442E0D10020D8E700005F
:103D4000B87B00082E2E5C4D515454436C69656E4F
:103D5000745C6D717474636C69656E745C6D7174A0
:103D600074636C69656E742E63000000D87E000871
:103D70000A00000070B505460C4605B114B96FF095
:103D8000010070BD21462846FFF7A8FF20B120465C
:103D9000FFF799FF0020F4E705F158012046FFF7EF
:103DA00058FF0020EDE72DE9F04105460C46164688
:103DB00060683F2801DA606800E03F2007463A4625
:103DC0002846A168FCF73EFA0020E8552E64BDE8BD
:103DD000F0812DE9F0470446884615460026002765
:103DE000B146206BA84201D9A94601E0D4F8309031
:103DF00000BF404601F0C9FA824653464A46E1698F
:103E0000A06E01F023F807464FB13E44A81B216B7A
:103E1000884202D3D4F8309001E0A5EB0609AE4207
:103E200001DA002FE5D1BDE8F0870000F8B50446BF
:103E30000E4600250020009032466946204600F0DC
:103E4000D3F9054600980E2838D2DFE800F007378E
:103E50001125122B2C133719371F373215F1080F84
:103E600005D11C48FEF7D8FE1BA0FEF7D5FE26E0C4
:103E70002BE000BF3146204600F030F805461EE03A
:103E80003146204600F0D2FB054618E03146204678
:103E900000F0BEFD054612E03146204600F088F8ED
:103EA00005460CE000BF3146204600F0FEF805460E
:103EB00005E0A06A20F00C00A06200E000BF00BF97
:103EC0002046FFF741FE054600BF05B9009D284684
:103ED000F8BD0000747E00080A0000007FB50446AB
:103EE0000E464FF0FF352046FFF702FE054615B19E
:103EF000284604B070BD206B009003AA02A901A857
:103F0000E369FDF7E1FE012801D06FF00805002309
:103F1000BDF80C209DF804102046FFF7F0FA054686
:103F20002846E6E72DE9FC4104460D4617460026E3
:103F3000B04604F1500001F09EF8052F02D0062F84
:103F40001FD115E0009500230622616B206AFEF761
:103F50006BF806460020B3B22A460721009020469F
:103F6000FFF757FA8046B8F1000F00D019E00BE0D8
:103F7000009500230722616B206AFEF755F806467C
:103F800002E06FF009080CE000BF002E02DC6FF0C9
:103F90000A0806E001AA3146204600F08AF9804668
:103FA00000BF04F1500001F076F84046BDE8FC8106
:103FB000F0B58DB004460F4600250026002008907D
:103FC0002046FFF795FD064616B130460DB0F0BD10
:103FD00008AA09ABE169206BCDE90132CDE90310F4
:103FE0000AA807ABD21F05A900900E38FDF7DDFE29
:103FF000012802D06FF01000E8E70598C0B28DF8F4
:1040000018009DF8180078B304F1500001F033F85F
:104010009DF8180001280AD1BDF81C00009000236B
:104020000422616B206AFDF7FFFF05460DE09DF855
:104030001800022809D1BDF81C00009000230522B9
:10404000616B206AFDF7F0FF0546002D02DC6FF082
:10405000110605E03A462946204600F02AF90646B0
:1040600004F1500001F017F8002E01DA3046ADE7F8
:104070009DF81800022805D006AA0AA92046FFF7D5
:104080002FFC10E00020ABB20090BDF81C200621F0
:104090002046FFF7BEF90646173020B106AA0AA946
:1040A0002046FFF71DFC304690E77FB504460E46DC
:1040B0004FF0FF352046FFF71BFD054615B128469A
:1040C00004B070BD206B009003AA02A901A8E369A7
:1040D000FDF7FAFD012802D06FF00800F0E79DF827
:1040E0000420BDF80C102046FFF71CFF05460023F6
:1040F000BDF80C209DF804102046FFF700FA054695
:104100002846DDE770B504460D465CB9184B40F211
:10411000254218A121A0FEF77FFD28A0FEF77CFD17
:10412000002070BDE06910B1E06900F091FF2563E7
:10413000206B022804D96FF07041206B884202D3B3
:104140004FF480602063206B00F076FFE061E0694F
:1041500060B9074B40F2334206A119A0FEF75CFD9F
:1041600016A0FEF759FD6FF00200DAE7206BD8E7E2
:104170008C7C00082E2E5C4D515454436C69656E46
:10418000745C6D717474636C69656E745C6D71746C
:1041900074636C69656E742E6300000025733A25A4
:1041A0006420257328292E2E2E20636865636B20DA
:1041B000666F72206572726F722E00000A00000036
:1041C00025733A256420257328292E2E2E206D6113
:1041D0006C6C6F6320726561642062756620666135
:1041E000696C65642E2E2E002DE9FC4704460E46B0
:1041F0001746002001900125009016B9801EBDE8E9
:10420000FC873846E16A01F0A4F8384601F0BDF8B1
:1042100081464B462A46E169A06E00F017FE8046B3
:10422000A84502D06FF00600E9E7384601F0ADF886
:1042300081464A4669462046FFF71EFBE169481958
:104240000099FDF7A1FE054400982844216B88429F
:1042500007D939462046009AFFF7BBFD6FF00700EB
:10426000CDE70098002811DD384601F08EF8814630
:10427000E26951194B46A06E009A00F0E7FD8046B6
:104280000099884202D06FF00600B8E7E069007834
:104290008DF804000198C0F303103060A08C4FF437
:1042A0007A7200FB02F104F1740001F052F8002070
:1042B000A5E72DE9F04704460D4617464FF00008E4
:1042C00000263846E16A01F044F810E0384601F073
:1042D0005CF88146226A91194B462A46A06E00F08E
:1042E000D0FD8046B8F1000F00DC07E04644AE4246
:1042F00004DA384601F03AF80028E7D000BFAE42B1
:104300000BD1A08C4FF47A7200FB02F104F1700023
:1043100001F01FF80020BDE8F0876FF01200FAE707
:1043200070B504460D465CB90A4B4FF491620AA180
:1043300013A0FEF771FC1AA0FEF76EFC002070BD02
:10434000A06A65F34100A06294F82800C0F3400021
:10435000F5E70000697D00082E2E5C4D5154544352
:104360006C69656E745C6D717474636C69656E7490
:104370005C6D717474636C69656E742E630000000B
:1043800025733A256420257328292E2E2E20636854
:1043900065636B20666F72206572726F722E00000B
:1043A0000A00000070B504460D465CB9074B40F2A8
:1043B0007F4207A110A0FEF72FFC17A0FEF72CFCF0
:1043C000002070BD25602068FBE70000C17C00086C
:1043D0002E2E5C4D515454436C69656E745C6D7146
:1043E0007474636C69656E745C6D717474636C690C
:1043F000656E742E6300000025733A2564202573D2
:1044000028292E2E2E20636865636B20666F72202C
:104410006572726F722E00000A00000070B50446CB
:104420000D4604F1540000F026FE84F84C5004F1CF
:10443000540000F030FE70BD70B504460D465CB906
:10444000074B40F2824207A110A0FEF7E5FB17A040
:10445000FEF7E2FB002070BDE560E068FBE70000CE
:10446000F97C00082E2E5C4D515454436C69656EE6
:10447000745C6D717474636C69656E745C6D717479
:1044800074636C69656E742E6300000025733A25B1
:104490006420257328292E2E2E20636865636B20E7
:1044A000666F72206572726F722E00000A00000043
:1044B00070B504460D465CB9074B40F2814207A136
:1044C00010A0FEF7A9FB17A0FEF7A6FB002070BD09
:1044D000A560A068FBE70000E77C00082E2E5C4D7D
:1044E000515454436C69656E745C6D717474636C83
:1044F00069656E745C6D717474636C69656E742E3D
:104500006300000025733A256420257328292E2E88
:104510002E20636865636B20666F72206572726F10
:10452000722E00000A00000070B504460D465CB90A
:10453000074B40F2834207A110A0FEF76DFB17A0C6
:10454000FEF76AFB002070BD25612069FBE70000D3
:10455000077D00082E2E5C4D515454436C69656EE6
:10456000745C6D717474636C69656E745C6D717488
:1045700074636C69656E742E6300000025733A25C0
:104580006420257328292E2E2E20636865636B20F6
:10459000666F72206572726F722E00000A00000052
:1045A00070B504460D465CB9074B4FF4906207A105
:1045B00010A0FEF731FB17A0FEF72EFB002070BD08
:1045C00065606068FBE70000D47C00082E2E5C4D1F
:1045D000515454436C69656E745C6D717474636C92
:1045E00069656E745C6D717474636C69656E742E4C
:1045F0006300000025733A256420257328292E2E98
:104600002E20636865636B20666F72206572726F1F
:10461000722E00000A00000010B504464FF47A71B3
:1046200004FB01F000F0BEFE10BD0000F0B587B045
:1046300004460F464FF0FF350020069005900026F7
:1046400003902046FFF754FA054615B1284607B0F7
:10465000F0BD216BE06905AB06AACDE9000101219F
:1046600004A8FDF7F6FB012802D06FF00C00EEE77E
:104670000598802801D1012000E00020064603AB08
:10468000BDF8102009212046FEF739FF05460398A2
:1046900010B96FF00200DAE75EB10398FFF713FB81
:1046A00007A0FEF7B9FA0DA0FEF7B6FA6FF00E00FC
:1046B000CDE720460399FFF75DFB05462846C6E790
:1046C00073756273637269626520746F70696320C9
:1046D0006661696C65642E2E2E0000000A000000E1
:1046E0002DE9FF4788B004460D461E466FF01309BA
:1046F00000270020049005900690049580462046EF
:10470000FFF726F9012804D06FF00D000CB0BDE8CA
:10471000F0872046FFF741F9824604F1500000F08F
:10472000AAFC0AA804A90122CDE90021029053465F
:104730000022616B206AFDF7A9FD0746002F00DC0F
:1047400021E007AA39462046FFF7B3FDB0F1000982
:1047500000D018E006B90F4E32469DF828102846C2
:10476000FFF79BFA8046B8F1000F02D16FF0020903
:1047700009E0BBB2524609212046CDF80080FEF781
:1047800048FE814600BF04F1500000F084FC48461A
:10479000BCE700007D31000870B50446002504F137
:1047A000540000F068FCA06A000A002800DC07E062
:1047B0000121A06AC1EB102161F31F20A06200BF9C
:1047C00004F1540000F067FC284670BD70B5054642
:1047D0000C462946A2686068831825E010782F28C7
:1047E00003D108782F2800D022E008782B2807D0A2
:1047F0000878232804D008781678B04200D017E053
:1048000008782B280AD1501C02E0561C3246701C36
:10481000984202D206782F2EF7D103E00878232899
:1048200000D15A1E491C521C087808B19A42D5D3AF
:1048300000BF9A4203D1087808B9012070BD00205A
:10484000FCE7000038B505466FF003042846FFF783
:104850007FF8012803D02846FEF7D5FE04463CB970
:10486000284600F05BF8044600212846FEF7FDFDCF
:104870006042064B40F2592205A100900EA0FEF7BF
:10488000CBF91AA0FEF7C8F9204638BDE77B00082F
:104890002E2E5C4D515454436C69656E745C6D7181
:1048A0007474636C69656E745C6D717474636C6947
:1048B000656E742E6300000025733A25642025730D
:1048C00028292E2E2E206D71747420747279206325
:1048D0006F6E6E65637420726573756C7420697396
:1048E000202D307825303478000000000A000000C8
:1048F00070B504460025A06F18B12046A26FA169CB
:1049000090472046FFF79EFF05462DB1A06BFFF7AD
:1049100083FE6FF00F0070BD2846FCE72DE9F041E3
:1049200005466FF01408184B40F23B2217A121A056
:10493000FEF772F929A0FEF76FF905F15800FFF7AD
:10494000A4F910B10020BDE8F081AC6D276815E036
:104950002646327A2846D6E90313FFF7C1FE804681
:10496000163048B9084B40F2452208A11CA0FEF7BA
:1049700053F91AA0FEF750F93C46276805F1580094
:104980008442E5D14046DEE7D27B00082E2E5C4D06
:10499000515454436C69656E745C6D717474636CCE
:1049A00069656E745C6D717474636C69656E742E88
:1049B0006300000025733A256420257328292E2ED4
:1049C0002E206D7174742074727920726573756213
:1049D000736372696265202E2E2E00000A000000AB
:1049E00025733A256420257328292E2E2E206D71DB
:1049F00074742061636B2068616E646C6572206EF4
:104A0000756D20746F6F206D756368202E2E2E00DB
:104A10007CB504460E464FF0FF350020009020463E
:104A2000FFF766F805460DB128467CBD6846226B47
:104A3000E169FDF757FA012802D06FF00B00F4E7A7
:104A400001ABBDF800200B212046FEF758FD0546BE
:104A5000019810B96FF00200E7E70198FFF733F90A
:104A60002846E2E72DE9F04107460E4614464FF08E
:104A7000FF3500BF204600F079FC00B108E0214678
:104A80003846FFF7D3F90546B54201D0002DF1DADB
:104A900000BF2846BDE8F08170B504460D465CB9FC
:104AA000184B40F23B4218A121A0FEF7B5F828A010
:104AB000FEF7B2F8002070BD206A10B1206A00F045
:104AC000C7FA6563606B022804D96FF07041606BB0
:104AD000884202D34FF480606063606B00F0ACFAF0
:104AE0002062206A60B9074B40F2494206A119A032
:104AF000FEF792F816A0FEF78FF86FF00200DAE7E3
:104B0000606BD8E7A17C00082E2E5C4D51545443B5
:104B10006C69656E745C6D717474636C69656E74D8
:104B20005C6D717474636C69656E742E6300000053
:104B300025733A256420257328292E2E2E2063689C
:104B400065636B20666F72206572726F722E000053
:104B50000A00000025733A256420257328292E2E8B
:104B60002E206D616C6C6F632077726974652062B2
:104B70007566206661696C65642E2E2E000000004B
:104B8000F8B506460F4600240EB9601EF8BD07B9F9
:104B9000F76A3946684600F0DCFB30E03046FEF745
:104BA000D7FE0546032D02D16FF01700EEE7012D69
:104BB00009D03046FFF79CFE044614F1100F01D1D6
:104BC0002046E3E71BE069463046FFF72FF904462D
:104BD000002C04DB01213046FEF747FC0EE014F107
:104BE0000E0F0AD10A4B40F295320AA113A0FEF72C
:104BF00013F81AA0FEF710F800E005E000BF6846C1
:104C000000F0B4FB0028C9D000BF2046BEE700007A
:104C1000FD7B00082E2E5C4D515454436C69656E2B
:104C2000745C6D717474636C69656E745C6D7174C1
:104C300074636C69656E742E6300000025733A25F9
:104C40006420257328292E2E2E206D717474206EF9
:104C50006F7420636F6E6E65637400000A0000005D
:104C60002DE9F041064634464FF000082046FEF795
:104C70006FFE0746012F0CD01E4B40F2A7321EA13B
:104C800027A0FDF7C9FF34A0FDF7C6FFE06E00F0D6
:104C90005AFB25E02046E16AFFF772FF054615F151
:104CA000180F10D1134B40F2AE3213A12BA0FDF719
:104CB000B3FF29A0FDF7B0FFA06E00F0B4F82046C6
:104CC000FEF75CFC0DE015F1100F09D1094B40F225
:104CD000B33209A12BA0FDF79FFF1FA0FDF79CFF9A
:104CE000D8E7D4F86C800020E066404600F0FAFA7D
:104CF000BDE8F081087C00082E2E5C4D51545443D1
:104D00006C69656E745C6D717474636C69656E74E6
:104D10005C6D717474636C69656E742E6300000061
:104D200025733A256420257328292E2E2E2C206DDC
:104D3000717474206973206E6F7420636F6E6E657A
:104D40006374656420746F2074686520736572767F
:104D500065722E2E2E0000000A00000025733A25F1
:104D60006420257328292E2E2E2C206D717474201A
:104D7000636C65616E2073657373696F6E2E2E2E82
:104D80002E00000025733A256420257328292E2E35
:104D90002E2C206D717474207265636F6E6E656366
:104DA000742074696D656F75742E2E2E2E000000B0
:104DB00010B504460022D4E9000100F09DF9A0607E
:104DC000A068002801DAA06810BD0020FCE710B53B
:104DD000044614B1A06800F07FF94FF0FF30A060E6
:104DE00010BD2DE9F04104460D4616461F463B46D0
:104DF00032462946A06800F015FABDE8F0812DE999
:104E0000F04104460D4616461F463B4632462946AB
:104E1000A06800F01FFABDE8F08110B504462046F6
:104E2000FFF7C6FF10BD10B504462046FFF7CFFFC1
:104E300010BD10B5044614B96FF0010010BD4FF05D
:104E4000FF30A060216062600020F7E72DE9F041AB
:104E500004460D4616461F463B4632462946204626
:104E6000FFF7BFFFBDE8F08110B50446A068002839
:104E700002DB2046FFF7D7FF002020606060A060C3
:104E800010BD2DE9F04104460D4616461F463B462F
:104E9000324629462046FFF7B2FFBDE8F081000008
:104EA00070B50546FDF7FBFE48B9FDF7FBFE30B9CE
:104EB00008480068022805D1FDF7EEFE10B16FF03A
:104EC000050404E0002415B1284601F00BFB204640
:104ED00070BD00006C00002010B5FDF7E0FE48B981
:104EE000FDF7E0FE30B90B480068022805D1FDF758
:104EF000D3FE10B16FF0050409E00648006820B940
:104F0000012004490860002401E04FF0FF342046EE
:104F100010BD00006C00002010B5FDF7C0FE48B9C0
:104F2000FDF7C0FE30B90C480068022805D1FDF736
:104F3000B3FE10B16FF005040CE0074800680128CB
:104F400006D102200449086001F05CFC002401E065
:104F50004FF0FF34204610BD6C0000202DE9F047D3
:104F600086B080468946144600200490FDF797FEDF
:104F700000285DD1FDF796FE002859D12D48006824
:104F8000022803D1FDF788FE002851D1B8F1000FA7
:104F90004ED080261825002005900DF1140A471EDA
:104FA00044B3206808B1D4F800A0A06900B1A56995
:104FB0002DB1382D03D8207900F0010018B1002060
:104FC00006B0BDE8F087606908B160698608A0682E
:104FD00040B1E0685C2805D3206918B1606908B168
:104FE000012708E0A06830B9E06820B9206910B94D
:104FF000002700E00027012F0CD12169A0684B4653
:105000003246CDE9005102905146404602F09CFAEA
:1050100004900DE067B904A8B2B24B465146CDE901
:105020000050404602F05EFA012801D000200490B2
:105030000498C5E76C00002070B50446204600F0D7
:10504000E9FE054621462846FBF715F9284670BDBE
:1050500010B50446204601F06FF910BD10B50446A6
:1050600003220021012001F0BCFD2060012001F09D
:10507000A7FD002010BD10B504464FF0FF31206899
:1050800002F00EF910BD70B504460D4629462068A1
:1050900002F006F970BD10B5044600231A46194601
:1050A000206801F089FE10BD10B50446084920684B
:1050B00001F0D2FF0648006838B14FF08050054932
:1050C0000860BFF34F8FBFF36F8F012010BD00004A
:1050D0009C00002004ED00E010B504464FF4FA6394
:1050E0000022114601A0FBF7DFF910BD41542B430C
:1050F0004950434C4F534500F0B599B005460E4614
:1051000017464FF4FA63002211461CA0FBF7CCF9B6
:10511000044634B121461CA0FDF77EFD204619B09F
:10512000F0BD4FF4FA63002211461DA0FBF7BCF955
:1051300004462CB1214623A0FDF76EFD2046EEE784
:1051400037B933462A4625A16846FDF775FD05E0C7
:1051500033462A4628A16846FDF76EFD4FF4FA63F0
:10516000002211466846FBF79FF9044624B1224607
:10517000694628A0FDF750FD0020D0E741542B439D
:10518000574D4F44453D330041542B43574D4F44F9
:10519000453D3320657272203D2025640A000000E1
:1051A00041542B43574A41503D2250726F67726100
:1051B0006D6D6572222C2231303061736B746563C2
:1051C00068220000636F6E6E656374204150206535
:1051D0007272203D2025640A0000000041542B43D8
:1051E000495053544152543D2254435022202C22C2
:1051F0002573222C2564000041542B4349505354FD
:105200004152543D2255445022202C222573222CF9
:1052100025640000257320657272203D2025640AF4
:10522000000000002DE9F04781460E4614461F4657
:105230004FF0000809E006EB08003946FBF7BAF822
:10524000054615B10020BDE8F087A045F3DB2046F8
:10525000F9E700002DE9FE4307460D46164698463D
:10526000324612A16846FDF7E7FC4FF4FA630022CC
:1052700011466846FBF718F904463CB122466946D8
:105280000EA0FDF7C9FC2046BDE8FE834FF4FA628C
:1052900031462846FBF742F904462CB121460BA0C3
:1052A000FDF7BAFC2046EFE70020EDE741542B4321
:1052B000495053454E443D25640000002573206548
:1052C0007272203D2025640A00000000415453659D
:1052D0006E644461746120657272203D2025640A09
:1052E0000000000010B5044614B1206801F028F950
:1052F0002046FFF7ADFE10BD2DE9FC5F04460D46CC
:1053000016461F46DDE90C9B0420FFF795FE8046FC
:10531000BAB2334621462846CDE9009802F0E2F8B9
:105320008246BAF1010F05D04046FFF791FE0020FA
:10533000BDE8FC9F4046FBE710B50446206801F03D
:1053400019FA10BD704710B50446206801F0B6FA8E
:1053500010BD70B504460D4600F02EF820602068A0
:105360002844206070BD00210160704710B50446DC
:1053700000F022F82168884201D9012010BD0020E8
:10538000FCE710B500F018F810BD70B5044600F049
:1053900013F805462068A84201D8002070BD206897
:1053A000401BFBE770B5044614B1254605B901253D
:1053B000284601F097F870BD10B502F031F910BD24
:1053C0002DE9F04105460E46164807681648006864
:1053D000001D00F007FF681C38B936B1124801689B
:1053E000091D124800F054FF1AE07C190E480068AD
:1053F0004460BC4207D20C480168091D0C48006893
:1054000000F02CFF0CE008480168091D09480068FD
:1054100000F024FF08480068844201D20648046076
:10542000BDE8F081300000201C000020840A00202C
:1054300024000020200000204C00002010B504466D
:1054400000F032FF24480068401C234908602348CC
:10545000006840B9214804600846006801280DD161
:1054600000F010FA0AE01E48006838B91B480068CE
:10547000C06AE16A884201D8184804601948006887
:10548000401C184908600846006860641649E06AD4
:105490000968884202D91449E06A0860E16A01EBB0
:1054A0008101124A02EB8100211D00F0F1FE00F0A3
:1054B00025FF0B48006868B108480068C06AE16AC7
:1054C000884207D24FF0805009490860BFF34F8FE0
:1054D000BFF36F8F10BD00002C0000201C000020C7
:1054E000380000204800002034000020D4050020AF
:1054F00004ED00E008B500F0D7FE12480068E8B9F6
:10550000114800F09BFE114800F098FE0E4810492B
:1055100008600E480F49086000200F4B0F4A102109
:1055200000900A2001F08CFB0649086008460068DC
:1055300020B10BA10348006800F098FF00F0DEFEE8
:1055400008BD000060000020980A0020AC0A00207E
:10555000580000205C000020C00A0020100B002032
:10556000546D72510000000010B516E000F09CFE72
:105570000C48C068C468201D00F034FE0A4800686A
:10558000401E0949086009480068401E0749086034
:1055900000F0B4FE204600F05EF8044800680028E1
:1055A000E4D110BD700A00202C000020280000204B
:1055B00070B504460D46206C70B1216CE06808445B
:1055C000E0606168E068884201D32068E0602846B6
:1055D000226CE168FAF736FE70BD2DE9F041044611
:1055E0000F4615464FF00008A66B206C40B92068A6
:1055F00060BB606802F0BCF880460020606025E077
:105600007DB93946226CA068FAF71CFE216CA068AF
:105610000844A060D4E90110884217D32068A06034
:1056200014E03946226CE068FAF70CFE216CE06861
:10563000401AE0602168E068884203D2216C60680B
:10564000401AE060022D01D106B1761E701CA063E5
:105650004046BDE8F08110B5044694F8590030B9D1
:10566000206B00F069FE204600F066FE1AE094F818
:105670005900012803D1204600F05EFE12E094F8A4
:105680005900022801D1012000E0002050B900BFDC
:10569000502080F31188BFF34F8FBFF36F8F00BF8F
:1056A00000BFFEE710BD01464A6A22B10A6B1268CC
:1056B000C2F1380000E00020704700000146084AAF
:1056C000126812680AB9012200E000220A600A6822
:1056D00022B9034A1268D268106800E000207047BF
:1056E0005800002030B54FF44063174800F007041D
:1056F0002CB1C01D20F00700134C041B1B1B0246DD
:10570000124C22600024114D6C60D018083820F033
:1057100007000F4C206000240D4D2D686C600C4D6F
:105720002D682C601146441A4C60094C24680C60AA
:10573000084D4C682C60084D4C682C604FF00044BC
:10574000064D2C6030BD0000681200207000002063
:1057500078000020800000207C00002084000020D1
:1057600000BFFFF701FF064800680128F9D94FF094
:10577000805004490860BFF34F8FBFF36F8FF0E78D
:10578000D405002004ED00E010B504464CB1002023
:1057900060602060E06000231A461946204601F050
:1057A0000BFB10BD2DE9F04106460D461746984605
:1057B000069C0DB9246000E02760E66325640121A2
:1057C000204601F0ADFA84F84C80BDE8F0812DE967
:1057D000F05F82460F4690469B460A9E0C9C4FEA1D
:1057E0008801A522206BFAF73FFDA8F10100216B8B
:1057F00001EB800929F0070909F0070008B9012029
:1058000000E0002050B900BF502080F31188BFF3A2
:105810004F8FBFF36F8F00BF00BFFEE7002507E08B
:10582000795D04F134004155785D00B902E06D1CEA
:10583000102DF5D300BF002143200155382E00D391
:105840003726E662E66400202065201D00F003FD97
:1058500004F1180000F0FFFC2461C6F13800A061DB
:1058600064620020606584F858005A4651464846F4
:1058700000F07EFB20600B9808B10B980460BDE837
:10588000F09F000010B5002407E004EB84010F4AEC
:1058900002EB810000F0D2FC641C382CF5D30C48DC
:1058A00000F0CCFC0B4800F0C9FC0B4800F0C6FC33
:1058B0000A4800F0C3FC0A4800F0C0FC044809494B
:1058C000086004480849086010BD0000D4050020A5
:1058D000340A0020480A00205C0A0020700A0020D8
:1058E000840A0020200000202400002010B501467A
:1058F000164800E0006803688B42FBD30246436809
:1059000013448B4204D143684C68234443600146EE
:105910000A464B6813440468A34211D10C4C036837
:105920002468A34208D04B680468646823444B6031
:1059300003681B680B6005E0054B1B680B6001E00A
:1059400003680B60884200D0016010BD7000002029
:10595000780000202DE9F04104460D4616461F460A
:105960004FF0000865602461B5420CD8F01BA169B6
:10597000884202D34FF0010811E0211D0948006858
:1059800000F06CFC0BE0BE4204D2BD4202D34FF0EB
:10599000010804E0211D0448006800F05FFC404657
:1059A000BDE8F0815C0000205800002070B505467D
:1059B00000F07AFCA86B08B9012400E0002400F094
:1059C0009DFC204670BD70B5054600F06DFCA86BCF
:1059D000E96B884201D1012400E0002400F08EFC34
:1059E000204670BDF8B505460F4616480068C068E9
:1059F000C468201D00F0F6FBE06901281DD1A069F4
:105A000041192B463A462046FFF7A4FFA8B10020D3
:105A100003462A4601460090204602F057F8064603
:105A200056B900BF502080F31188BFF34F8FBFF3EA
:105A30006F8F00BF00BFFEE700BF2046616A884746
:105A4000F8BD000058000020F0B587B082E0039850
:105A5000002811DA04AE56B900BF502080F3118837
:105A6000BFF34F8FBFF36F8F00BF00BFFEE7D6E9D4
:105A70000020B168904700BF039800286ADB059CAE
:105A8000606908B9012000E0002010B9201D00F075
:105A9000A9FB02A800F0C0F8054603980A2857D2CF
:105AA000DFE800F009050731334F0608323400BF44
:105AB00000BF00BF00BF0498A269811803462A46B0
:105AC0002046FFF747FFE8B12046616A8847E06952
:105AD000012817D1002000900498A16942180023E2
